{
  "_format": "hh-sol-artifact-1",
  "contractName": "TheSentientMachine",
  "sourceName": "contracts/TheSentientMachine.sol",
  "abi": [
    {
      "inputs": [
        {
          "internalType": "string",
          "name": "_tokenName",
          "type": "string"
        },
        {
          "internalType": "string",
          "name": "_tokenSymbol",
          "type": "string"
        }
      ],
      "stateMutability": "nonpayable",
      "type": "constructor"
    },
    {
      "anonymous": false,
      "inputs": [
        {
          "indexed": true,
          "internalType": "address",
          "name": "owner",
          "type": "address"
        },
        {
          "indexed": true,
          "internalType": "address",
          "name": "approved",
          "type": "address"
        },
        {
          "indexed": true,
          "internalType": "uint256",
          "name": "tokenId",
          "type": "uint256"
        }
      ],
      "name": "Approval",
      "type": "event"
    },
    {
      "anonymous": false,
      "inputs": [
        {
          "indexed": true,
          "internalType": "address",
          "name": "owner",
          "type": "address"
        },
        {
          "indexed": true,
          "internalType": "address",
          "name": "operator",
          "type": "address"
        },
        {
          "indexed": false,
          "internalType": "bool",
          "name": "approved",
          "type": "bool"
        }
      ],
      "name": "ApprovalForAll",
      "type": "event"
    },
    {
      "anonymous": false,
      "inputs": [
        {
          "indexed": true,
          "internalType": "address",
          "name": "_to",
          "type": "address"
        },
        {
          "indexed": true,
          "internalType": "uint256",
          "name": "_tokenId",
          "type": "uint256"
        },
        {
          "indexed": true,
          "internalType": "uint256",
          "name": "_collectionId",
          "type": "uint256"
        },
        {
          "indexed": false,
          "internalType": "uint256",
          "name": "_invocations",
          "type": "uint256"
        },
        {
          "indexed": false,
          "internalType": "uint256",
          "name": "_value",
          "type": "uint256"
        }
      ],
      "name": "Mint",
      "type": "event"
    },
    {
      "anonymous": false,
      "inputs": [
        {
          "indexed": true,
          "internalType": "address",
          "name": "from",
          "type": "address"
        },
        {
          "indexed": true,
          "internalType": "address",
          "name": "to",
          "type": "address"
        },
        {
          "indexed": true,
          "internalType": "uint256",
          "name": "tokenId",
          "type": "uint256"
        }
      ],
      "name": "Transfer",
      "type": "event"
    },
    {
      "inputs": [
        {
          "internalType": "string",
          "name": "_newBaseURI",
          "type": "string"
        },
        {
          "internalType": "uint256",
          "name": "_collectionId",
          "type": "uint256"
        }
      ],
      "name": "addBaseURI",
      "outputs": [],
      "stateMutability": "nonpayable",
      "type": "function"
    },
    {
      "inputs": [
        {
          "internalType": "string",
          "name": "_name",
          "type": "string"
        },
        {
          "internalType": "uint256",
          "name": "_tokenPriceInWei",
          "type": "uint256"
        },
        {
          "internalType": "uint256",
          "name": "_maxInvocations",
          "type": "uint256"
        }
      ],
      "name": "addCollection",
      "outputs": [],
      "stateMutability": "nonpayable",
      "type": "function"
    },
    {
      "inputs": [
        {
          "internalType": "uint256",
          "name": "_collectionId",
          "type": "uint256"
        },
        {
          "internalType": "string",
          "name": "_script",
          "type": "string"
        }
      ],
      "name": "addCollectionScript",
      "outputs": [],
      "stateMutability": "nonpayable",
      "type": "function"
    },
    {
      "inputs": [],
      "name": "admin",
      "outputs": [
        {
          "internalType": "address",
          "name": "",
          "type": "address"
        }
      ],
      "stateMutability": "view",
      "type": "function"
    },
    {
      "inputs": [
        {
          "internalType": "address",
          "name": "to",
          "type": "address"
        },
        {
          "internalType": "uint256",
          "name": "tokenId",
          "type": "uint256"
        }
      ],
      "name": "approve",
      "outputs": [],
      "stateMutability": "nonpayable",
      "type": "function"
    },
    {
      "inputs": [
        {
          "internalType": "address",
          "name": "owner",
          "type": "address"
        }
      ],
      "name": "balanceOf",
      "outputs": [
        {
          "internalType": "uint256",
          "name": "",
          "type": "uint256"
        }
      ],
      "stateMutability": "view",
      "type": "function"
    },
    {
      "inputs": [
        {
          "internalType": "uint256",
          "name": "",
          "type": "uint256"
        },
        {
          "internalType": "uint256",
          "name": "",
          "type": "uint256"
        }
      ],
      "name": "collectionIdToTokenIds",
      "outputs": [
        {
          "internalType": "uint256",
          "name": "",
          "type": "uint256"
        }
      ],
      "stateMutability": "view",
      "type": "function"
    },
    {
      "inputs": [],
      "name": "contractURI",
      "outputs": [
        {
          "internalType": "string",
          "name": "",
          "type": "string"
        }
      ],
      "stateMutability": "pure",
      "type": "function"
    },
    {
      "inputs": [
        {
          "internalType": "uint256",
          "name": "tokenId",
          "type": "uint256"
        }
      ],
      "name": "getApproved",
      "outputs": [
        {
          "internalType": "address",
          "name": "",
          "type": "address"
        }
      ],
      "stateMutability": "view",
      "type": "function"
    },
    {
      "inputs": [
        {
          "internalType": "address",
          "name": "owner",
          "type": "address"
        },
        {
          "internalType": "address",
          "name": "operator",
          "type": "address"
        }
      ],
      "name": "isApprovedForAll",
      "outputs": [
        {
          "internalType": "bool",
          "name": "",
          "type": "bool"
        }
      ],
      "stateMutability": "view",
      "type": "function"
    },
    {
      "inputs": [
        {
          "internalType": "uint256",
          "name": "_collectionId",
          "type": "uint256"
        }
      ],
      "name": "lockCollection",
      "outputs": [],
      "stateMutability": "nonpayable",
      "type": "function"
    },
    {
      "inputs": [],
      "name": "name",
      "outputs": [
        {
          "internalType": "string",
          "name": "",
          "type": "string"
        }
      ],
      "stateMutability": "view",
      "type": "function"
    },
    {
      "inputs": [],
      "name": "nextCollectionId",
      "outputs": [
        {
          "internalType": "uint256",
          "name": "",
          "type": "uint256"
        }
      ],
      "stateMutability": "view",
      "type": "function"
    },
    {
      "inputs": [
        {
          "internalType": "uint256",
          "name": "tokenId",
          "type": "uint256"
        }
      ],
      "name": "ownerOf",
      "outputs": [
        {
          "internalType": "address",
          "name": "",
          "type": "address"
        }
      ],
      "stateMutability": "view",
      "type": "function"
    },
    {
      "inputs": [
        {
          "internalType": "uint256",
          "name": "_collectionId",
          "type": "uint256"
        }
      ],
      "name": "pauseCollection",
      "outputs": [],
      "stateMutability": "nonpayable",
      "type": "function"
    },
    {
      "inputs": [
        {
          "internalType": "uint256",
          "name": "_collectionId",
          "type": "uint256"
        }
      ],
      "name": "purchase",
      "outputs": [
        {
          "internalType": "uint256",
          "name": "_tokenId",
          "type": "uint256"
        }
      ],
      "stateMutability": "payable",
      "type": "function"
    },
    {
      "inputs": [
        {
          "internalType": "address",
          "name": "_to",
          "type": "address"
        },
        {
          "internalType": "uint256",
          "name": "_collectionId",
          "type": "uint256"
        }
      ],
      "name": "purchaseTo",
      "outputs": [
        {
          "internalType": "uint256",
          "name": "_tokenId",
          "type": "uint256"
        }
      ],
      "stateMutability": "payable",
      "type": "function"
    },
    {
      "inputs": [
        {
          "internalType": "address",
          "name": "from",
          "type": "address"
        },
        {
          "internalType": "address",
          "name": "to",
          "type": "address"
        },
        {
          "internalType": "uint256",
          "name": "tokenId",
          "type": "uint256"
        }
      ],
      "name": "safeTransferFrom",
      "outputs": [],
      "stateMutability": "nonpayable",
      "type": "function"
    },
    {
      "inputs": [
        {
          "internalType": "address",
          "name": "from",
          "type": "address"
        },
        {
          "internalType": "address",
          "name": "to",
          "type": "address"
        },
        {
          "internalType": "uint256",
          "name": "tokenId",
          "type": "uint256"
        },
        {
          "internalType": "bytes",
          "name": "_data",
          "type": "bytes"
        }
      ],
      "name": "safeTransferFrom",
      "outputs": [],
      "stateMutability": "nonpayable",
      "type": "function"
    },
    {
      "inputs": [
        {
          "internalType": "address",
          "name": "operator",
          "type": "address"
        },
        {
          "internalType": "bool",
          "name": "approved",
          "type": "bool"
        }
      ],
      "name": "setApprovalForAll",
      "outputs": [],
      "stateMutability": "nonpayable",
      "type": "function"
    },
    {
      "inputs": [
        {
          "internalType": "bytes4",
          "name": "interfaceId",
          "type": "bytes4"
        }
      ],
      "name": "supportsInterface",
      "outputs": [
        {
          "internalType": "bool",
          "name": "",
          "type": "bool"
        }
      ],
      "stateMutability": "view",
      "type": "function"
    },
    {
      "inputs": [],
      "name": "symbol",
      "outputs": [
        {
          "internalType": "string",
          "name": "",
          "type": "string"
        }
      ],
      "stateMutability": "view",
      "type": "function"
    },
    {
      "inputs": [
        {
          "internalType": "uint256",
          "name": "index",
          "type": "uint256"
        }
      ],
      "name": "tokenByIndex",
      "outputs": [
        {
          "internalType": "uint256",
          "name": "",
          "type": "uint256"
        }
      ],
      "stateMutability": "view",
      "type": "function"
    },
    {
      "inputs": [
        {
          "internalType": "uint256",
          "name": "",
          "type": "uint256"
        }
      ],
      "name": "tokenIdToCollectionId",
      "outputs": [
        {
          "internalType": "uint256",
          "name": "",
          "type": "uint256"
        }
      ],
      "stateMutability": "view",
      "type": "function"
    },
    {
      "inputs": [
        {
          "internalType": "uint256",
          "name": "",
          "type": "uint256"
        },
        {
          "internalType": "uint256",
          "name": "",
          "type": "uint256"
        }
      ],
      "name": "tokenIdToHashes",
      "outputs": [
        {
          "internalType": "bytes32",
          "name": "",
          "type": "bytes32"
        }
      ],
      "stateMutability": "view",
      "type": "function"
    },
    {
      "inputs": [
        {
          "internalType": "address",
          "name": "owner",
          "type": "address"
        },
        {
          "internalType": "uint256",
          "name": "index",
          "type": "uint256"
        }
      ],
      "name": "tokenOfOwnerByIndex",
      "outputs": [
        {
          "internalType": "uint256",
          "name": "",
          "type": "uint256"
        }
      ],
      "stateMutability": "view",
      "type": "function"
    },
    {
      "inputs": [
        {
          "internalType": "uint256",
          "name": "_tokenId",
          "type": "uint256"
        }
      ],
      "name": "tokenURI",
      "outputs": [
        {
          "internalType": "string",
          "name": "",
          "type": "string"
        }
      ],
      "stateMutability": "view",
      "type": "function"
    },
    {
      "inputs": [],
      "name": "totalSupply",
      "outputs": [
        {
          "internalType": "uint256",
          "name": "",
          "type": "uint256"
        }
      ],
      "stateMutability": "view",
      "type": "function"
    },
    {
      "inputs": [
        {
          "internalType": "address",
          "name": "from",
          "type": "address"
        },
        {
          "internalType": "address",
          "name": "to",
          "type": "address"
        },
        {
          "internalType": "uint256",
          "name": "tokenId",
          "type": "uint256"
        }
      ],
      "name": "transferFrom",
      "outputs": [],
      "stateMutability": "nonpayable",
      "type": "function"
    },
    {
      "inputs": [
        {
          "internalType": "uint256",
          "name": "_collectionId",
          "type": "uint256"
        }
      ],
      "name": "viewAllCollectionTokens",
      "outputs": [
        {
          "internalType": "uint256[]",
          "name": "",
          "type": "uint256[]"
        }
      ],
      "stateMutability": "view",
      "type": "function"
    },
    {
      "inputs": [
        {
          "internalType": "uint256",
          "name": "_collectionId",
          "type": "uint256"
        }
      ],
      "name": "viewCollectionDetails",
      "outputs": [
        {
          "internalType": "string",
          "name": "name",
          "type": "string"
        },
        {
          "internalType": "uint256",
          "name": "tokenPriceInWei",
          "type": "uint256"
        },
        {
          "internalType": "uint256",
          "name": "invocations",
          "type": "uint256"
        },
        {
          "internalType": "uint256",
          "name": "maxInvocations",
          "type": "uint256"
        },
        {
          "internalType": "bool",
          "name": "paused",
          "type": "bool"
        },
        {
          "internalType": "bool",
          "name": "locked",
          "type": "bool"
        }
      ],
      "stateMutability": "view",
      "type": "function"
    },
    {
      "inputs": [
        {
          "internalType": "uint256",
          "name": "_collectionId",
          "type": "uint256"
        }
      ],
      "name": "viewCollectionScript",
      "outputs": [
        {
          "internalType": "string",
          "name": "",
          "type": "string"
        }
      ],
      "stateMutability": "view",
      "type": "function"
    }
  ],
  "bytecode": "0x60806040523480156200001157600080fd5b5060405162004b8d38038062004b8d8339818101604052810190620000379190620001d8565b8181816000908051906020019062000051929190620000b6565b5080600190805190602001906200006a929190620000b6565b50505033600a60006101000a81548173ffffffffffffffffffffffffffffffffffffffff021916908373ffffffffffffffffffffffffffffffffffffffff16021790555050506200037c565b828054620000c490620002e8565b90600052602060002090601f016020900481019282620000e8576000855562000134565b82601f106200010357805160ff191683800117855562000134565b8280016001018555821562000134579182015b828111156200013357825182559160200191906001019062000116565b5b50905062000143919062000147565b5090565b5b808211156200016257600081600090555060010162000148565b5090565b60006200017d62000177846200027f565b6200024b565b9050828152602081018484840111156200019657600080fd5b620001a3848285620002b2565b509392505050565b600082601f830112620001bd57600080fd5b8151620001cf84826020860162000166565b91505092915050565b60008060408385031215620001ec57600080fd5b600083015167ffffffffffffffff8111156200020757600080fd5b6200021585828601620001ab565b925050602083015167ffffffffffffffff8111156200023357600080fd5b6200024185828601620001ab565b9150509250929050565b6000604051905081810181811067ffffffffffffffff821117156200027557620002746200034d565b5b8060405250919050565b600067ffffffffffffffff8211156200029d576200029c6200034d565b5b601f19601f8301169050602081019050919050565b60005b83811015620002d2578082015181840152602081019050620002b5565b83811115620002e2576000848401525b50505050565b600060028204905060018216806200030157607f821691505b602082108114156200031857620003176200031e565b5b50919050565b7f4e487b7100000000000000000000000000000000000000000000000000000000600052602260045260246000fd5b7f4e487b7100000000000000000000000000000000000000000000000000000000600052604160045260246000fd5b614801806200038c6000396000f3fe6080604052600436106101e35760003560e01c80637e7e8bd611610102578063de93a82511610095578063efef39a111610064578063efef39a11461077e578063f851a440146107ae578063fc23d74f146107d9578063fdb8860714610802576101e3565b8063de93a825146106a9578063e77d6f7c146106eb578063e8a3d48514610716578063e985e9c514610741576101e3565b806395d89b41116100d157806395d89b41146105ef578063a22cb4651461061a578063b88d4fde14610643578063c87b56dd1461066c576101e3565b80637e7e8bd61461051c5780637f4258e714610559578063891407c01461058257806394244890146105b2576101e3565b806342842e0e1161017a5780636352211e116101495780636352211e1461043c57806370a0823114610479578063734edac9146104b657806375c10ffa146104df576101e3565b806342842e0e14610384578063468e50e9146103ad5780634d190793146103d65780634f6ccce7146103ff576101e3565b8063095ea7b3116101b6578063095ea7b3146102ca57806318160ddd146102f357806323b872dd1461031e5780632f745c5914610347576101e3565b806301ffc9a7146101e857806306fdde0314610225578063078a811d14610250578063081812fc1461028d575b600080fd5b3480156101f457600080fd5b5061020f600480360381019061020a9190613270565b61083f565b60405161021c9190613ed0565b60405180910390f35b34801561023157600080fd5b5061023a6108b9565b6040516102479190613f06565b60405180910390f35b34801561025c57600080fd5b50610277600480360381019061027291906133fa565b61094b565b6040516102849190613eeb565b60405180910390f35b34801561029957600080fd5b506102b460048036038101906102af919061337d565b61097c565b6040516102c19190613e47565b60405180910390f35b3480156102d657600080fd5b506102f160048036038101906102ec9190613234565b610a01565b005b3480156102ff57600080fd5b50610308610b19565b6040516103159190614230565b60405180910390f35b34801561032a57600080fd5b506103456004803603810190610340919061312e565b610b26565b005b34801561035357600080fd5b5061036e60048036038101906103699190613234565b610b86565b60405161037b9190614230565b60405180910390f35b34801561039057600080fd5b506103ab60048036038101906103a6919061312e565b610c2b565b005b3480156103b957600080fd5b506103d460048036038101906103cf9190613316565b610c4b565b005b3480156103e257600080fd5b506103fd60048036038101906103f891906133a6565b610d8d565b005b34801561040b57600080fd5b506104266004803603810190610421919061337d565b610eb2565b6040516104339190614230565b60405180910390f35b34801561044857600080fd5b50610463600480360381019061045e919061337d565b610f49565b6040516104709190613e47565b60405180910390f35b34801561048557600080fd5b506104a0600480360381019061049b91906130c9565b610ffb565b6040516104ad9190614230565b60405180910390f35b3480156104c257600080fd5b506104dd60048036038101906104d8919061337d565b6110b3565b005b3480156104eb57600080fd5b506105066004803603810190610501919061337d565b611198565b6040516105139190614230565b60405180910390f35b34801561052857600080fd5b50610543600480360381019061053e919061337d565b6111b0565b6040516105509190613f06565b60405180910390f35b34801561056557600080fd5b50610580600480360381019061057b919061337d565b611258565b005b61059c60048036038101906105979190613234565b611380565b6040516105a99190614230565b60405180910390f35b3480156105be57600080fd5b506105d960048036038101906105d491906133fa565b611533565b6040516105e69190614230565b60405180910390f35b3480156105fb57600080fd5b50610604611564565b6040516106119190613f06565b60405180910390f35b34801561062657600080fd5b50610641600480360381019061063c91906131f8565b6115f6565b005b34801561064f57600080fd5b5061066a6004803603810190610665919061317d565b611777565b005b34801561067857600080fd5b50610693600480360381019061068e919061337d565b6117d9565b6040516106a09190613f06565b60405180910390f35b3480156106b557600080fd5b506106d060048036038101906106cb919061337d565b61187b565b6040516106e296959493929190613f28565b60405180910390f35b3480156106f757600080fd5b506107006119c6565b60405161070d9190614230565b60405180910390f35b34801561072257600080fd5b5061072b6119cc565b6040516107389190613f06565b60405180910390f35b34801561074d57600080fd5b50610768600480360381019061076391906130f2565b6119ec565b6040516107759190613ed0565b60405180910390f35b6107986004803603810190610793919061337d565b611a80565b6040516107a59190614230565b60405180910390f35b3480156107ba57600080fd5b506107c3611a93565b6040516107d09190613e47565b60405180910390f35b3480156107e557600080fd5b5061080060048036038101906107fb91906132c2565b611ab9565b005b34801561080e57600080fd5b506108296004803603810190610824919061337d565b611bdb565b6040516108369190613eae565b60405180910390f35b60007f780e9d63000000000000000000000000000000000000000000000000000000007bffffffffffffffffffffffffffffffffffffffffffffffffffffffff1916827bffffffffffffffffffffffffffffffffffffffffffffffffffffffff191614806108b257506108b182611c46565b5b9050919050565b6060600080546108c89061456b565b80601f01602080910402602001604051908101604052809291908181526020018280546108f49061456b565b80156109415780601f1061091657610100808354040283529160200191610941565b820191906000526020600020905b81548152906001019060200180831161092457829003601f168201915b5050505050905090565b6010602052816000526040600020818154811061096757600080fd5b90600052602060002001600091509150505481565b600061098782611d28565b6109c6576040517f08c379a00000000000000000000000000000000000000000000000000000000081526004016109bd90614190565b60405180910390fd5b6004600083815260200190815260200160002060009054906101000a900473ffffffffffffffffffffffffffffffffffffffff169050919050565b6000610a0c82610f49565b90508073ffffffffffffffffffffffffffffffffffffffff168373ffffffffffffffffffffffffffffffffffffffff161415610a7d576040517f08c379a0000000000000000000000000000000000000000000000000000000008152600401610a74906141d0565b60405180910390fd5b8073ffffffffffffffffffffffffffffffffffffffff16610a9c611d94565b73ffffffffffffffffffffffffffffffffffffffff161480610acb5750610aca81610ac5611d94565b6119ec565b5b610b0a576040517f08c379a0000000000000000000000000000000000000000000000000000000008152600401610b0190614110565b60405180910390fd5b610b148383611d9c565b505050565b6000600880549050905090565b610b37610b31611d94565b82611e55565b610b76576040517f08c379a0000000000000000000000000000000000000000000000000000000008152600401610b6d906141f0565b60405180910390fd5b610b81838383611f33565b505050565b6000610b9183610ffb565b8210610bd2576040517f08c379a0000000000000000000000000000000000000000000000000000000008152600401610bc990613fb0565b60405180910390fd5b600660008473ffffffffffffffffffffffffffffffffffffffff1673ffffffffffffffffffffffffffffffffffffffff168152602001908152602001600020600083815260200190815260200160002054905092915050565b610c4683838360405180602001604052806000815250611777565b505050565b600a60009054906101000a900473ffffffffffffffffffffffffffffffffffffffff1673ffffffffffffffffffffffffffffffffffffffff163373ffffffffffffffffffffffffffffffffffffffff1614610cdb576040517f08c379a0000000000000000000000000000000000000000000000000000000008152600401610cd2906140d0565b60405180910390fd5b6000600b54905083600d60008381526020019081526020016000206000019080519060200190610d0c929190612eed565b5082600d60008381526020019081526020016000206001018190555081600d6000838152602001908152602001600020600301819055506001600d600083815260200190815260200160002060060160006101000a81548160ff0219169083151502179055506001600b54610d819190614396565b600b8190555050505050565b81600d600082815260200190815260200160002060060160019054906101000a900460ff1615610df2576040517f08c379a0000000000000000000000000000000000000000000000000000000008152600401610de990614010565b60405180910390fd5b600a60009054906101000a900473ffffffffffffffffffffffffffffffffffffffff1673ffffffffffffffffffffffffffffffffffffffff163373ffffffffffffffffffffffffffffffffffffffff1614610e82576040517f08c379a0000000000000000000000000000000000000000000000000000000008152600401610e79906140d0565b60405180910390fd5b81600d60008581526020019081526020016000206004019080519060200190610eac929190612eed565b50505050565b6000610ebc610b19565b8210610efd576040517f08c379a0000000000000000000000000000000000000000000000000000000008152600401610ef490614210565b60405180910390fd5b60088281548110610f37577f4e487b7100000000000000000000000000000000000000000000000000000000600052603260045260246000fd5b90600052602060002001549050919050565b6000806002600084815260200190815260200160002060009054906101000a900473ffffffffffffffffffffffffffffffffffffffff169050600073ffffffffffffffffffffffffffffffffffffffff168173ffffffffffffffffffffffffffffffffffffffff161415610ff2576040517f08c379a0000000000000000000000000000000000000000000000000000000008152600401610fe990614150565b60405180910390fd5b80915050919050565b60008073ffffffffffffffffffffffffffffffffffffffff168273ffffffffffffffffffffffffffffffffffffffff16141561106c576040517f08c379a000000000000000000000000000000000000000000000000000000000815260040161106390614130565b60405180910390fd5b600360008373ffffffffffffffffffffffffffffffffffffffff1673ffffffffffffffffffffffffffffffffffffffff168152602001908152602001600020549050919050565b600a60009054906101000a900473ffffffffffffffffffffffffffffffffffffffff1673ffffffffffffffffffffffffffffffffffffffff163373ffffffffffffffffffffffffffffffffffffffff1614611143576040517f08c379a000000000000000000000000000000000000000000000000000000000815260040161113a906140d0565b60405180910390fd5b600d600082815260200190815260200160002060060160009054906101000a900460ff1615600d600083815260200190815260200160002060060160006101000a81548160ff02191690831515021790555050565b600e6020528060005260406000206000915090505481565b6060600d600083815260200190815260200160002060040180546111d39061456b565b80601f01602080910402602001604051908101604052809291908181526020018280546111ff9061456b565b801561124c5780601f106112215761010080835404028352916020019161124c565b820191906000526020600020905b81548152906001019060200180831161122f57829003601f168201915b50505050509050919050565b600a60009054906101000a900473ffffffffffffffffffffffffffffffffffffffff1673ffffffffffffffffffffffffffffffffffffffff163373ffffffffffffffffffffffffffffffffffffffff16146112e8576040517f08c379a00000000000000000000000000000000000000000000000000000000081526004016112df906140d0565b60405180910390fd5b80600d600082815260200190815260200160002060060160019054906101000a900460ff161561134d576040517f08c379a000000000000000000000000000000000000000000000000000000000815260040161134490614010565b60405180910390fd5b6001600d600084815260200190815260200160002060060160016101000a81548160ff0219169083151502179055505050565b6000600d6000838152602001908152602001600020600101543410156113db576040517f08c379a00000000000000000000000000000000000000000000000000000000081526004016113d290614030565b60405180910390fd5b600d6000838152602001908152602001600020600301546001600d6000858152602001908152602001600020600201546114159190614396565b1115611456576040517f08c379a000000000000000000000000000000000000000000000000000000000815260040161144d90614050565b60405180910390fd5b600d600083815260200190815260200160002060060160009054906101000a900460ff1615806114d35750600a60009054906101000a900473ffffffffffffffffffffffffffffffffffffffff1673ffffffffffffffffffffffffffffffffffffffff163373ffffffffffffffffffffffffffffffffffffffff16145b611512576040517f08c379a000000000000000000000000000000000000000000000000000000000815260040161150990613f90565b60405180910390fd5b600061151e848461218f565b90506115298361237d565b8091505092915050565b600f602052816000526040600020818154811061154f57600080fd5b90600052602060002001600091509150505481565b6060600180546115739061456b565b80601f016020809104026020016040519081016040528092919081815260200182805461159f9061456b565b80156115ec5780601f106115c1576101008083540402835291602001916115ec565b820191906000526020600020905b8154815290600101906020018083116115cf57829003601f168201915b5050505050905090565b6115fe611d94565b73ffffffffffffffffffffffffffffffffffffffff168273ffffffffffffffffffffffffffffffffffffffff16141561166c576040517f08c379a000000000000000000000000000000000000000000000000000000000815260040161166390614090565b60405180910390fd5b8060056000611679611d94565b73ffffffffffffffffffffffffffffffffffffffff1673ffffffffffffffffffffffffffffffffffffffff16815260200190815260200160002060008473ffffffffffffffffffffffffffffffffffffffff1673ffffffffffffffffffffffffffffffffffffffff16815260200190815260200160002060006101000a81548160ff0219169083151502179055508173ffffffffffffffffffffffffffffffffffffffff16611726611d94565b73ffffffffffffffffffffffffffffffffffffffff167f17307eab39ab6107e8899845ad3d59bd9653f200f220920489ca2b5937696c318360405161176b9190613ed0565b60405180910390a35050565b611788611782611d94565b83611e55565b6117c7576040517f08c379a00000000000000000000000000000000000000000000000000000000081526004016117be906141f0565b60405180910390fd5b6117d384848484612471565b50505050565b6060816117e581611d28565b611824576040517f08c379a000000000000000000000000000000000000000000000000000000000815260040161181b906140b0565b60405180910390fd5b600c6000600e6000868152602001908152602001600020548152602001908152602001600020611853846124cd565b604051602001611864929190613ddb565b604051602081830303815290604052915050919050565b60606000806000806000600d600088815260200190815260200160002060000180546118a69061456b565b80601f01602080910402602001604051908101604052809291908181526020018280546118d29061456b565b801561191f5780601f106118f45761010080835404028352916020019161191f565b820191906000526020600020905b81548152906001019060200180831161190257829003601f168201915b50505050509550600d6000888152602001908152602001600020600101549450600d6000888152602001908152602001600020600301549250600d6000888152602001908152602001600020600201549350600d600088815260200190815260200160002060060160009054906101000a900460ff169150600d600088815260200190815260200160002060060160019054906101000a900460ff16905091939550919395565b600b5481565b606060405180608001604052806050815260200161477c60509139905090565b6000600560008473ffffffffffffffffffffffffffffffffffffffff1673ffffffffffffffffffffffffffffffffffffffff16815260200190815260200160002060008373ffffffffffffffffffffffffffffffffffffffff1673ffffffffffffffffffffffffffffffffffffffff16815260200190815260200160002060009054906101000a900460ff16905092915050565b6000611a8c3383611380565b9050919050565b600a60009054906101000a900473ffffffffffffffffffffffffffffffffffffffff1681565b80600d600082815260200190815260200160002060060160019054906101000a900460ff1615611b1e576040517f08c379a0000000000000000000000000000000000000000000000000000000008152600401611b1590614010565b60405180910390fd5b600a60009054906101000a900473ffffffffffffffffffffffffffffffffffffffff1673ffffffffffffffffffffffffffffffffffffffff163373ffffffffffffffffffffffffffffffffffffffff1614611bae576040517f08c379a0000000000000000000000000000000000000000000000000000000008152600401611ba5906140d0565b60405180910390fd5b82600c60008481526020019081526020016000209080519060200190611bd5929190612eed565b50505050565b6060600f6000838152602001908152602001600020805480602002602001604051908101604052809291908181526020018280548015611c3a57602002820191906000526020600020905b815481526020019060010190808311611c26575b50505050509050919050565b60007f80ac58cd000000000000000000000000000000000000000000000000000000007bffffffffffffffffffffffffffffffffffffffffffffffffffffffff1916827bffffffffffffffffffffffffffffffffffffffffffffffffffffffff19161480611d1157507f5b5e139f000000000000000000000000000000000000000000000000000000007bffffffffffffffffffffffffffffffffffffffffffffffffffffffff1916827bffffffffffffffffffffffffffffffffffffffffffffffffffffffff1916145b80611d215750611d208261267a565b5b9050919050565b60008073ffffffffffffffffffffffffffffffffffffffff166002600084815260200190815260200160002060009054906101000a900473ffffffffffffffffffffffffffffffffffffffff1673ffffffffffffffffffffffffffffffffffffffff1614159050919050565b600033905090565b816004600083815260200190815260200160002060006101000a81548173ffffffffffffffffffffffffffffffffffffffff021916908373ffffffffffffffffffffffffffffffffffffffff160217905550808273ffffffffffffffffffffffffffffffffffffffff16611e0f83610f49565b73ffffffffffffffffffffffffffffffffffffffff167f8c5be1e5ebec7d5bd14f71427d1e84f3dd0314c0f7b2291e5b200ac8c7c3b92560405160405180910390a45050565b6000611e6082611d28565b611e9f576040517f08c379a0000000000000000000000000000000000000000000000000000000008152600401611e96906140f0565b60405180910390fd5b6000611eaa83610f49565b90508073ffffffffffffffffffffffffffffffffffffffff168473ffffffffffffffffffffffffffffffffffffffff161480611f1957508373ffffffffffffffffffffffffffffffffffffffff16611f018461097c565b73ffffffffffffffffffffffffffffffffffffffff16145b80611f2a5750611f2981856119ec565b5b91505092915050565b8273ffffffffffffffffffffffffffffffffffffffff16611f5382610f49565b73ffffffffffffffffffffffffffffffffffffffff1614611fa9576040517f08c379a0000000000000000000000000000000000000000000000000000000008152600401611fa0906141b0565b60405180910390fd5b600073ffffffffffffffffffffffffffffffffffffffff168273ffffffffffffffffffffffffffffffffffffffff161415612019576040517f08c379a000000000000000000000000000000000000000000000000000000000815260040161201090614070565b60405180910390fd5b6120248383836126e4565b61202f600082611d9c565b6001600360008573ffffffffffffffffffffffffffffffffffffffff1673ffffffffffffffffffffffffffffffffffffffff168152602001908152602001600020600082825461207f9190614477565b925050819055506001600360008473ffffffffffffffffffffffffffffffffffffffff1673ffffffffffffffffffffffffffffffffffffffff16815260200190815260200160002060008282546120d69190614396565b92505081905550816002600083815260200190815260200160002060006101000a81548173ffffffffffffffffffffffffffffffffffffffff021916908373ffffffffffffffffffffffffffffffffffffffff160217905550808273ffffffffffffffffffffffffffffffffffffffff168473ffffffffffffffffffffffffffffffffffffffff167fddf252ad1be2c89b69c2b068fc378daa952ba7f163c4a11628f55a4df523b3ef60405160405180910390a4505050565b600080600d600084815260200190815260200160002060020154620f4240846121b8919061441d565b6121c29190614396565b90506001600d6000858152602001908152602001600020600201546121e79190614396565b600d6000858152602001908152602001600020600201819055506000600d600085815260200190815260200160002060020154433360405160200161222e93929190613e0a565b604051602081830303815290604052805190602001209050601060008381526020019081526020016000208190806001815401808255809150506001900390600052602060002001600090919091909150558160116000838152602001908152602001600020819055506122a285836127f8565b83600e600084815260200190815260200160002081905550600f600085815260200190815260200160002082908060018154018082558091505060019003906000526020600020016000909190919091505583828673ffffffffffffffffffffffffffffffffffffffff167f94c792774c59479f7bd68442f3af3691c02123a5aabee8b6f9116d8af8aa6669600d600089815260200190815260200160002060020154600d60008a81526020019081526020016000206001015460405161236a92919061424b565b60405180910390a4819250505092915050565b600034111561246e576000600d6000838152602001908152602001600020600101549050600081346123af9190614477565b90506000811115612402573373ffffffffffffffffffffffffffffffffffffffff166108fc829081150290604051600060405180830381858888f19350505050158015612400573d6000803e3d6000fd5b505b600a60009054906101000a900473ffffffffffffffffffffffffffffffffffffffff1673ffffffffffffffffffffffffffffffffffffffff166108fc839081150290604051600060405180830381858888f1935050505015801561246a573d6000803e3d6000fd5b5050505b50565b61247c848484611f33565b612488848484846129c6565b6124c7576040517f08c379a00000000000000000000000000000000000000000000000000000000081526004016124be90613fd0565b60405180910390fd5b50505050565b60606000821415612515576040518060400160405280600181526020017f30000000000000000000000000000000000000000000000000000000000000008152509050612675565b600082905060005b600082146125475780806125309061459d565b915050600a8261254091906143ec565b915061251d565b60008167ffffffffffffffff811115612589577f4e487b7100000000000000000000000000000000000000000000000000000000600052604160045260246000fd5b6040519080825280601f01601f1916602001820160405280156125bb5781602001600182028036833780820191505090505b5090505b6000851461266e576001826125d49190614477565b9150600a856125e39190614614565b60306125ef9190614396565b60f81b81838151811061262b577f4e487b7100000000000000000000000000000000000000000000000000000000600052603260045260246000fd5b60200101907effffffffffffffffffffffffffffffffffffffffffffffffffffffffffffff1916908160001a905350600a8561266791906143ec565b94506125bf565b8093505050505b919050565b60007f01ffc9a7000000000000000000000000000000000000000000000000000000007bffffffffffffffffffffffffffffffffffffffffffffffffffffffff1916827bffffffffffffffffffffffffffffffffffffffffffffffffffffffff1916149050919050565b6126ef838383612b5d565b600073ffffffffffffffffffffffffffffffffffffffff168373ffffffffffffffffffffffffffffffffffffffff1614156127325761272d81612b62565b612771565b8173ffffffffffffffffffffffffffffffffffffffff168373ffffffffffffffffffffffffffffffffffffffff16146127705761276f8382612bab565b5b5b600073ffffffffffffffffffffffffffffffffffffffff168273ffffffffffffffffffffffffffffffffffffffff1614156127b4576127af81612d18565b6127f3565b8273ffffffffffffffffffffffffffffffffffffffff168273ffffffffffffffffffffffffffffffffffffffff16146127f2576127f18282612e5b565b5b5b505050565b600073ffffffffffffffffffffffffffffffffffffffff168273ffffffffffffffffffffffffffffffffffffffff161415612868576040517f08c379a000000000000000000000000000000000000000000000000000000000815260040161285f90614170565b60405180910390fd5b61287181611d28565b156128b1576040517f08c379a00000000000000000000000000000000000000000000000000000000081526004016128a890613ff0565b60405180910390fd5b6128bd600083836126e4565b6001600360008473ffffffffffffffffffffffffffffffffffffffff1673ffffffffffffffffffffffffffffffffffffffff168152602001908152602001600020600082825461290d9190614396565b92505081905550816002600083815260200190815260200160002060006101000a81548173ffffffffffffffffffffffffffffffffffffffff021916908373ffffffffffffffffffffffffffffffffffffffff160217905550808273ffffffffffffffffffffffffffffffffffffffff16600073ffffffffffffffffffffffffffffffffffffffff167fddf252ad1be2c89b69c2b068fc378daa952ba7f163c4a11628f55a4df523b3ef60405160405180910390a45050565b60006129e78473ffffffffffffffffffffffffffffffffffffffff16612eda565b15612b50578373ffffffffffffffffffffffffffffffffffffffff1663150b7a02612a10611d94565b8786866040518563ffffffff1660e01b8152600401612a329493929190613e62565b602060405180830381600087803b158015612a4c57600080fd5b505af1925050508015612a7d57506040513d601f19601f82011682018060405250810190612a7a9190613299565b60015b612b00573d8060008114612aad576040519150601f19603f3d011682016040523d82523d6000602084013e612ab2565b606091505b50600081511415612af8576040517f08c379a0000000000000000000000000000000000000000000000000000000008152600401612aef90613fd0565b60405180910390fd5b805181602001fd5b63150b7a0260e01b7bffffffffffffffffffffffffffffffffffffffffffffffffffffffff1916817bffffffffffffffffffffffffffffffffffffffffffffffffffffffff191614915050612b55565b600190505b949350505050565b505050565b6008805490506009600083815260200190815260200160002081905550600881908060018154018082558091505060019003906000526020600020016000909190919091505550565b60006001612bb884610ffb565b612bc29190614477565b9050600060076000848152602001908152602001600020549050818114612ca7576000600660008673ffffffffffffffffffffffffffffffffffffffff1673ffffffffffffffffffffffffffffffffffffffff168152602001908152602001600020600084815260200190815260200160002054905080600660008773ffffffffffffffffffffffffffffffffffffffff1673ffffffffffffffffffffffffffffffffffffffff168152602001908152602001600020600084815260200190815260200160002081905550816007600083815260200190815260200160002081905550505b6007600084815260200190815260200160002060009055600660008573ffffffffffffffffffffffffffffffffffffffff1673ffffffffffffffffffffffffffffffffffffffff16815260200190815260200160002060008381526020019081526020016000206000905550505050565b60006001600880549050612d2c9190614477565b9050600060096000848152602001908152602001600020549050600060088381548110612d82577f4e487b7100000000000000000000000000000000000000000000000000000000600052603260045260246000fd5b906000526020600020015490508060088381548110612dca577f4e487b7100000000000000000000000000000000000000000000000000000000600052603260045260246000fd5b906000526020600020018190555081600960008381526020019081526020016000208190555060096000858152602001908152602001600020600090556008805480612e3f577f4e487b7100000000000000000000000000000000000000000000000000000000600052603160045260246000fd5b6001900381819060005260206000200160009055905550505050565b6000612e6683610ffb565b905081600660008573ffffffffffffffffffffffffffffffffffffffff1673ffffffffffffffffffffffffffffffffffffffff168152602001908152602001600020600083815260200190815260200160002081905550806007600084815260200190815260200160002081905550505050565b600080823b905060008111915050919050565b828054612ef99061456b565b90600052602060002090601f016020900481019282612f1b5760008555612f62565b82601f10612f3457805160ff1916838001178555612f62565b82800160010185558215612f62579182015b82811115612f61578251825591602001919060010190612f46565b5b509050612f6f9190612f73565b5090565b5b80821115612f8c576000816000905550600101612f74565b5090565b6000612fa3612f9e846142a5565b614274565b905082815260208101848484011115612fbb57600080fd5b612fc6848285614529565b509392505050565b6000612fe1612fdc846142d5565b614274565b905082815260208101848484011115612ff957600080fd5b613004848285614529565b509392505050565b60008135905061301b8161471f565b92915050565b60008135905061303081614736565b92915050565b6000813590506130458161474d565b92915050565b60008151905061305a8161474d565b92915050565b600082601f83011261307157600080fd5b8135613081848260208601612f90565b91505092915050565b600082601f83011261309b57600080fd5b81356130ab848260208601612fce565b91505092915050565b6000813590506130c381614764565b92915050565b6000602082840312156130db57600080fd5b60006130e98482850161300c565b91505092915050565b6000806040838503121561310557600080fd5b60006131138582860161300c565b92505060206131248582860161300c565b9150509250929050565b60008060006060848603121561314357600080fd5b60006131518682870161300c565b93505060206131628682870161300c565b9250506040613173868287016130b4565b9150509250925092565b6000806000806080858703121561319357600080fd5b60006131a18782880161300c565b94505060206131b28782880161300c565b93505060406131c3878288016130b4565b925050606085013567ffffffffffffffff8111156131e057600080fd5b6131ec87828801613060565b91505092959194509250565b6000806040838503121561320b57600080fd5b60006132198582860161300c565b925050602061322a85828601613021565b9150509250929050565b6000806040838503121561324757600080fd5b60006132558582860161300c565b9250506020613266858286016130b4565b9150509250929050565b60006020828403121561328257600080fd5b600061329084828501613036565b91505092915050565b6000602082840312156132ab57600080fd5b60006132b98482850161304b565b91505092915050565b600080604083850312156132d557600080fd5b600083013567ffffffffffffffff8111156132ef57600080fd5b6132fb8582860161308a565b925050602061330c858286016130b4565b9150509250929050565b60008060006060848603121561332b57600080fd5b600084013567ffffffffffffffff81111561334557600080fd5b6133518682870161308a565b9350506020613362868287016130b4565b9250506040613373868287016130b4565b9150509250925092565b60006020828403121561338f57600080fd5b600061339d848285016130b4565b91505092915050565b600080604083850312156133b957600080fd5b60006133c7858286016130b4565b925050602083013567ffffffffffffffff8111156133e457600080fd5b6133f08582860161308a565b9150509250929050565b6000806040838503121561340d57600080fd5b600061341b858286016130b4565b925050602061342c858286016130b4565b9150509250929050565b60006134428383613da6565b60208301905092915050565b613457816144ab565b82525050565b61346e613469826144ab565b6145e6565b82525050565b600061347f8261432a565b6134898185614358565b935061349483614305565b8060005b838110156134c55781516134ac8882613436565b97506134b78361434b565b925050600181019050613498565b5085935050505092915050565b6134db816144bd565b82525050565b6134ea816144c9565b82525050565b60006134fb82614335565b6135058185614369565b9350613515818560208601614538565b61351e81614701565b840191505092915050565b600061353482614340565b61353e818561437a565b935061354e818560208601614538565b61355781614701565b840191505092915050565b600061356d82614340565b613577818561438b565b9350613587818560208601614538565b80840191505092915050565b600081546135a08161456b565b6135aa818661438b565b945060018216600081146135c557600181146135d657613609565b60ff19831686528186019350613609565b6135df85614315565b60005b83811015613601578154818901526001820191506020810190506135e2565b838801955050505b50505092915050565b600061361f601c8361437a565b91507f507572636861736573206d757374206e6f7420626520706175736564000000006000830152602082019050919050565b600061365f602b8361437a565b91507f455243373231456e756d657261626c653a206f776e657220696e646578206f7560008301527f74206f6620626f756e64730000000000000000000000000000000000000000006020830152604082019050919050565b60006136c560328361437a565b91507f4552433732313a207472616e7366657220746f206e6f6e20455243373231526560008301527f63656976657220696d706c656d656e74657200000000000000000000000000006020830152604082019050919050565b600061372b601c8361437a565b91507f4552433732313a20746f6b656e20616c7265616479206d696e746564000000006000830152602082019050919050565b600061376b60198361437a565b91507f4f6e6c7920756e6c6f636b656420636f6c6c656374696f6e73000000000000006000830152602082019050919050565b60006137ab602a8361437a565b91507f4d7573742073656e64206174206c656173742063757272656e7420707269636560008301527f20666f7220746f6b656e000000000000000000000000000000000000000000006020830152604082019050919050565b600061381160238361437a565b91507f4d757374206e6f7420657863656564206d6178696d756d20696e766f6361746960008301527f6f6e7300000000000000000000000000000000000000000000000000000000006020830152604082019050919050565b600061387760248361437a565b91507f4552433732313a207472616e7366657220746f20746865207a65726f2061646460008301527f72657373000000000000000000000000000000000000000000000000000000006020830152604082019050919050565b60006138dd60198361437a565b91507f4552433732313a20617070726f766520746f2063616c6c6572000000000000006000830152602082019050919050565b600061391d60178361437a565b91507f546f6b656e20494420646f6573206e6f742065786973740000000000000000006000830152602082019050919050565b600061395d600a8361437a565b91507f4f6e6c792061646d696e000000000000000000000000000000000000000000006000830152602082019050919050565b600061399d602c8361437a565b91507f4552433732313a206f70657261746f7220717565727920666f72206e6f6e657860008301527f697374656e7420746f6b656e00000000000000000000000000000000000000006020830152604082019050919050565b6000613a0360388361437a565b91507f4552433732313a20617070726f76652063616c6c6572206973206e6f74206f7760008301527f6e6572206e6f7220617070726f76656420666f7220616c6c00000000000000006020830152604082019050919050565b6000613a69602a8361437a565b91507f4552433732313a2062616c616e636520717565727920666f7220746865207a6560008301527f726f2061646472657373000000000000000000000000000000000000000000006020830152604082019050919050565b6000613acf60298361437a565b91507f4552433732313a206f776e657220717565727920666f72206e6f6e657869737460008301527f656e7420746f6b656e00000000000000000000000000000000000000000000006020830152604082019050919050565b6000613b3560208361437a565b91507f4552433732313a206d696e7420746f20746865207a65726f20616464726573736000830152602082019050919050565b6000613b75602c8361437a565b91507f4552433732313a20617070726f76656420717565727920666f72206e6f6e657860008301527f697374656e7420746f6b656e00000000000000000000000000000000000000006020830152604082019050919050565b6000613bdb60298361437a565b91507f4552433732313a207472616e73666572206f6620746f6b656e2074686174206960008301527f73206e6f74206f776e00000000000000000000000000000000000000000000006020830152604082019050919050565b6000613c4160218361437a565b91507f4552433732313a20617070726f76616c20746f2063757272656e74206f776e6560008301527f72000000000000000000000000000000000000000000000000000000000000006020830152604082019050919050565b6000613ca760068361438b565b91507f2f6e6674732f00000000000000000000000000000000000000000000000000006000830152600682019050919050565b6000613ce760318361437a565b91507f4552433732313a207472616e736665722063616c6c6572206973206e6f74206f60008301527f776e6572206e6f7220617070726f7665640000000000000000000000000000006020830152604082019050919050565b6000613d4d602c8361437a565b91507f455243373231456e756d657261626c653a20676c6f62616c20696e646578206f60008301527f7574206f6620626f756e647300000000000000000000000000000000000000006020830152604082019050919050565b613daf8161451f565b82525050565b613dbe8161451f565b82525050565b613dd5613dd08261451f565b61460a565b82525050565b6000613de78285613593565b9150613df282613c9a565b9150613dfe8284613562565b91508190509392505050565b6000613e168286613dc4565b602082019150613e268285613dc4565b602082019150613e36828461345d565b601482019150819050949350505050565b6000602082019050613e5c600083018461344e565b92915050565b6000608082019050613e77600083018761344e565b613e84602083018661344e565b613e916040830185613db5565b8181036060830152613ea381846134f0565b905095945050505050565b60006020820190508181036000830152613ec88184613474565b905092915050565b6000602082019050613ee560008301846134d2565b92915050565b6000602082019050613f0060008301846134e1565b92915050565b60006020820190508181036000830152613f208184613529565b905092915050565b600060c0820190508181036000830152613f428189613529565b9050613f516020830188613db5565b613f5e6040830187613db5565b613f6b6060830186613db5565b613f7860808301856134d2565b613f8560a08301846134d2565b979650505050505050565b60006020820190508181036000830152613fa981613612565b9050919050565b60006020820190508181036000830152613fc981613652565b9050919050565b60006020820190508181036000830152613fe9816136b8565b9050919050565b600060208201905081810360008301526140098161371e565b9050919050565b600060208201905081810360008301526140298161375e565b9050919050565b600060208201905081810360008301526140498161379e565b9050919050565b6000602082019050818103600083015261406981613804565b9050919050565b600060208201905081810360008301526140898161386a565b9050919050565b600060208201905081810360008301526140a9816138d0565b9050919050565b600060208201905081810360008301526140c981613910565b9050919050565b600060208201905081810360008301526140e981613950565b9050919050565b6000602082019050818103600083015261410981613990565b9050919050565b60006020820190508181036000830152614129816139f6565b9050919050565b6000602082019050818103600083015261414981613a5c565b9050919050565b6000602082019050818103600083015261416981613ac2565b9050919050565b6000602082019050818103600083015261418981613b28565b9050919050565b600060208201905081810360008301526141a981613b68565b9050919050565b600060208201905081810360008301526141c981613bce565b9050919050565b600060208201905081810360008301526141e981613c34565b9050919050565b6000602082019050818103600083015261420981613cda565b9050919050565b6000602082019050818103600083015261422981613d40565b9050919050565b60006020820190506142456000830184613db5565b92915050565b60006040820190506142606000830185613db5565b61426d6020830184613db5565b9392505050565b6000604051905081810181811067ffffffffffffffff8211171561429b5761429a6146d2565b5b8060405250919050565b600067ffffffffffffffff8211156142c0576142bf6146d2565b5b601f19601f8301169050602081019050919050565b600067ffffffffffffffff8211156142f0576142ef6146d2565b5b601f19601f8301169050602081019050919050565b6000819050602082019050919050565b60008190508160005260206000209050919050565b600081519050919050565b600081519050919050565b600081519050919050565b6000602082019050919050565b600082825260208201905092915050565b600082825260208201905092915050565b600082825260208201905092915050565b600081905092915050565b60006143a18261451f565b91506143ac8361451f565b9250827fffffffffffffffffffffffffffffffffffffffffffffffffffffffffffffffff038211156143e1576143e0614645565b5b828201905092915050565b60006143f78261451f565b91506144028361451f565b92508261441257614411614674565b5b828204905092915050565b60006144288261451f565b91506144338361451f565b9250817fffffffffffffffffffffffffffffffffffffffffffffffffffffffffffffffff048311821515161561446c5761446b614645565b5b828202905092915050565b60006144828261451f565b915061448d8361451f565b9250828210156144a05761449f614645565b5b828203905092915050565b60006144b6826144ff565b9050919050565b60008115159050919050565b6000819050919050565b60007fffffffff0000000000000000000000000000000000000000000000000000000082169050919050565b600073ffffffffffffffffffffffffffffffffffffffff82169050919050565b6000819050919050565b82818337600083830152505050565b60005b8381101561455657808201518184015260208101905061453b565b83811115614565576000848401525b50505050565b6000600282049050600182168061458357607f821691505b60208210811415614597576145966146a3565b5b50919050565b60006145a88261451f565b91507fffffffffffffffffffffffffffffffffffffffffffffffffffffffffffffffff8214156145db576145da614645565b5b600182019050919050565b60006145f1826145f8565b9050919050565b600061460382614712565b9050919050565b6000819050919050565b600061461f8261451f565b915061462a8361451f565b92508261463a57614639614674565b5b828206905092915050565b7f4e487b7100000000000000000000000000000000000000000000000000000000600052601160045260246000fd5b7f4e487b7100000000000000000000000000000000000000000000000000000000600052601260045260246000fd5b7f4e487b7100000000000000000000000000000000000000000000000000000000600052602260045260246000fd5b7f4e487b7100000000000000000000000000000000000000000000000000000000600052604160045260246000fd5b6000601f19601f8301169050919050565b60008160601b9050919050565b614728816144ab565b811461473357600080fd5b50565b61473f816144bd565b811461474a57600080fd5b50565b614756816144d3565b811461476157600080fd5b50565b61476d8161451f565b811461477857600080fd5b5056fe68747470733a2f2f676174657761792e70696e6174612e636c6f75642f697066732f516d506d5945467879715952665a796f6d55636f76795735416447684a3772556a5a37794d7a6f4d557a34614478a26469706673582212202255c0756d2c4713ddaeda19f381895a267072d7e3ba3a5ad7daef46faba0e9764736f6c63430008000033",
  "linkReferences": {},
  "deployedLinkReferences": {}
}