{
  "_format": "hh-sol-artifact-1",
  "contractName": "PinkFlamingoSocialClub",
  "sourceName": "contracts/PinkFlamingoSocialClub.sol",
  "abi": [
    {
      "inputs": [
        {
          "internalType": "string",
          "name": "_tokenName",
          "type": "string"
        },
        {
          "internalType": "string",
          "name": "_tokenSymbol",
          "type": "string"
        },
        {
          "internalType": "string",
          "name": "_contractURI",
          "type": "string"
        },
        {
          "internalType": "address",
          "name": "_router",
          "type": "address"
        },
        {
          "internalType": "uint256",
          "name": "_maxTokenId",
          "type": "uint256"
        },
        {
          "internalType": "uint256",
          "name": "_tokenPriceInWei",
          "type": "uint256"
        },
        {
          "internalType": "address[]",
          "name": "_minters",
          "type": "address[]"
        }
      ],
      "stateMutability": "nonpayable",
      "type": "constructor"
    },
    {
      "anonymous": false,
      "inputs": [
        {
          "indexed": true,
          "internalType": "address",
          "name": "owner",
          "type": "address"
        },
        {
          "indexed": true,
          "internalType": "address",
          "name": "approved",
          "type": "address"
        },
        {
          "indexed": true,
          "internalType": "uint256",
          "name": "tokenId",
          "type": "uint256"
        }
      ],
      "name": "Approval",
      "type": "event"
    },
    {
      "anonymous": false,
      "inputs": [
        {
          "indexed": true,
          "internalType": "address",
          "name": "owner",
          "type": "address"
        },
        {
          "indexed": true,
          "internalType": "address",
          "name": "operator",
          "type": "address"
        },
        {
          "indexed": false,
          "internalType": "bool",
          "name": "approved",
          "type": "bool"
        }
      ],
      "name": "ApprovalForAll",
      "type": "event"
    },
    {
      "anonymous": false,
      "inputs": [
        {
          "indexed": true,
          "internalType": "address",
          "name": "_to",
          "type": "address"
        },
        {
          "indexed": true,
          "internalType": "uint256",
          "name": "_tokenId",
          "type": "uint256"
        }
      ],
      "name": "Migration",
      "type": "event"
    },
    {
      "anonymous": false,
      "inputs": [
        {
          "indexed": true,
          "internalType": "address",
          "name": "_to",
          "type": "address"
        },
        {
          "indexed": true,
          "internalType": "uint256",
          "name": "_tokenId",
          "type": "uint256"
        }
      ],
      "name": "Mint",
      "type": "event"
    },
    {
      "anonymous": false,
      "inputs": [
        {
          "indexed": true,
          "internalType": "address",
          "name": "from",
          "type": "address"
        },
        {
          "indexed": true,
          "internalType": "address",
          "name": "to",
          "type": "address"
        },
        {
          "indexed": true,
          "internalType": "uint256",
          "name": "tokenId",
          "type": "uint256"
        }
      ],
      "name": "Transfer",
      "type": "event"
    },
    {
      "inputs": [
        {
          "internalType": "string",
          "name": "_newBaseURI",
          "type": "string"
        }
      ],
      "name": "addBaseURI",
      "outputs": [],
      "stateMutability": "nonpayable",
      "type": "function"
    },
    {
      "inputs": [],
      "name": "admin",
      "outputs": [
        {
          "internalType": "address",
          "name": "",
          "type": "address"
        }
      ],
      "stateMutability": "view",
      "type": "function"
    },
    {
      "inputs": [
        {
          "internalType": "address",
          "name": "to",
          "type": "address"
        },
        {
          "internalType": "uint256",
          "name": "tokenId",
          "type": "uint256"
        }
      ],
      "name": "approve",
      "outputs": [],
      "stateMutability": "nonpayable",
      "type": "function"
    },
    {
      "inputs": [
        {
          "internalType": "address",
          "name": "owner",
          "type": "address"
        }
      ],
      "name": "balanceOf",
      "outputs": [
        {
          "internalType": "uint256",
          "name": "",
          "type": "uint256"
        }
      ],
      "stateMutability": "view",
      "type": "function"
    },
    {
      "inputs": [],
      "name": "baseURI",
      "outputs": [
        {
          "internalType": "string",
          "name": "",
          "type": "string"
        }
      ],
      "stateMutability": "view",
      "type": "function"
    },
    {
      "inputs": [],
      "name": "contractURI",
      "outputs": [
        {
          "internalType": "string",
          "name": "",
          "type": "string"
        }
      ],
      "stateMutability": "view",
      "type": "function"
    },
    {
      "inputs": [],
      "name": "contractURIString",
      "outputs": [
        {
          "internalType": "string",
          "name": "",
          "type": "string"
        }
      ],
      "stateMutability": "view",
      "type": "function"
    },
    {
      "inputs": [
        {
          "internalType": "uint256",
          "name": "tokenId",
          "type": "uint256"
        }
      ],
      "name": "getApproved",
      "outputs": [
        {
          "internalType": "address",
          "name": "",
          "type": "address"
        }
      ],
      "stateMutability": "view",
      "type": "function"
    },
    {
      "inputs": [
        {
          "internalType": "address",
          "name": "owner",
          "type": "address"
        },
        {
          "internalType": "address",
          "name": "operator",
          "type": "address"
        }
      ],
      "name": "isApprovedForAll",
      "outputs": [
        {
          "internalType": "bool",
          "name": "",
          "type": "bool"
        }
      ],
      "stateMutability": "view",
      "type": "function"
    },
    {
      "inputs": [
        {
          "internalType": "address",
          "name": "_address",
          "type": "address"
        }
      ],
      "name": "isEligableToRedeem",
      "outputs": [
        {
          "internalType": "bool",
          "name": "isElligable",
          "type": "bool"
        }
      ],
      "stateMutability": "view",
      "type": "function"
    },
    {
      "inputs": [],
      "name": "isMintPaused",
      "outputs": [
        {
          "internalType": "bool",
          "name": "",
          "type": "bool"
        }
      ],
      "stateMutability": "view",
      "type": "function"
    },
    {
      "inputs": [
        {
          "internalType": "address[]",
          "name": "_minters",
          "type": "address[]"
        }
      ],
      "name": "loadMinters",
      "outputs": [],
      "stateMutability": "nonpayable",
      "type": "function"
    },
    {
      "inputs": [],
      "name": "maxTokenId",
      "outputs": [
        {
          "internalType": "uint256",
          "name": "",
          "type": "uint256"
        }
      ],
      "stateMutability": "view",
      "type": "function"
    },
    {
      "inputs": [
        {
          "internalType": "address",
          "name": "_to",
          "type": "address"
        }
      ],
      "name": "mintFalmingoTo",
      "outputs": [
        {
          "internalType": "uint256",
          "name": "_tokenId",
          "type": "uint256"
        }
      ],
      "stateMutability": "payable",
      "type": "function"
    },
    {
      "inputs": [],
      "name": "mintFlamingo",
      "outputs": [
        {
          "internalType": "uint256",
          "name": "_tokenId",
          "type": "uint256"
        }
      ],
      "stateMutability": "payable",
      "type": "function"
    },
    {
      "inputs": [],
      "name": "name",
      "outputs": [
        {
          "internalType": "string",
          "name": "",
          "type": "string"
        }
      ],
      "stateMutability": "view",
      "type": "function"
    },
    {
      "inputs": [],
      "name": "nextTokenId",
      "outputs": [
        {
          "internalType": "uint256",
          "name": "",
          "type": "uint256"
        }
      ],
      "stateMutability": "view",
      "type": "function"
    },
    {
      "inputs": [
        {
          "internalType": "uint256",
          "name": "tokenId",
          "type": "uint256"
        }
      ],
      "name": "ownerOf",
      "outputs": [
        {
          "internalType": "address",
          "name": "",
          "type": "address"
        }
      ],
      "stateMutability": "view",
      "type": "function"
    },
    {
      "inputs": [],
      "name": "pauseMint",
      "outputs": [],
      "stateMutability": "nonpayable",
      "type": "function"
    },
    {
      "inputs": [
        {
          "internalType": "address",
          "name": "_to",
          "type": "address"
        }
      ],
      "name": "redeemFlamingo",
      "outputs": [
        {
          "internalType": "uint256",
          "name": "_tokenId",
          "type": "uint256"
        }
      ],
      "stateMutability": "nonpayable",
      "type": "function"
    },
    {
      "inputs": [],
      "name": "router",
      "outputs": [
        {
          "internalType": "address",
          "name": "",
          "type": "address"
        }
      ],
      "stateMutability": "view",
      "type": "function"
    },
    {
      "inputs": [
        {
          "internalType": "address",
          "name": "from",
          "type": "address"
        },
        {
          "internalType": "address",
          "name": "to",
          "type": "address"
        },
        {
          "internalType": "uint256",
          "name": "tokenId",
          "type": "uint256"
        }
      ],
      "name": "safeTransferFrom",
      "outputs": [],
      "stateMutability": "nonpayable",
      "type": "function"
    },
    {
      "inputs": [
        {
          "internalType": "address",
          "name": "from",
          "type": "address"
        },
        {
          "internalType": "address",
          "name": "to",
          "type": "address"
        },
        {
          "internalType": "uint256",
          "name": "tokenId",
          "type": "uint256"
        },
        {
          "internalType": "bytes",
          "name": "data",
          "type": "bytes"
        }
      ],
      "name": "safeTransferFrom",
      "outputs": [],
      "stateMutability": "nonpayable",
      "type": "function"
    },
    {
      "inputs": [
        {
          "internalType": "address",
          "name": "operator",
          "type": "address"
        },
        {
          "internalType": "bool",
          "name": "approved",
          "type": "bool"
        }
      ],
      "name": "setApprovalForAll",
      "outputs": [],
      "stateMutability": "nonpayable",
      "type": "function"
    },
    {
      "inputs": [
        {
          "internalType": "bytes4",
          "name": "interfaceId",
          "type": "bytes4"
        }
      ],
      "name": "supportsInterface",
      "outputs": [
        {
          "internalType": "bool",
          "name": "",
          "type": "bool"
        }
      ],
      "stateMutability": "view",
      "type": "function"
    },
    {
      "inputs": [],
      "name": "symbol",
      "outputs": [
        {
          "internalType": "string",
          "name": "",
          "type": "string"
        }
      ],
      "stateMutability": "view",
      "type": "function"
    },
    {
      "inputs": [
        {
          "internalType": "uint256",
          "name": "index",
          "type": "uint256"
        }
      ],
      "name": "tokenByIndex",
      "outputs": [
        {
          "internalType": "uint256",
          "name": "",
          "type": "uint256"
        }
      ],
      "stateMutability": "view",
      "type": "function"
    },
    {
      "inputs": [
        {
          "internalType": "address",
          "name": "owner",
          "type": "address"
        },
        {
          "internalType": "uint256",
          "name": "index",
          "type": "uint256"
        }
      ],
      "name": "tokenOfOwnerByIndex",
      "outputs": [
        {
          "internalType": "uint256",
          "name": "",
          "type": "uint256"
        }
      ],
      "stateMutability": "view",
      "type": "function"
    },
    {
      "inputs": [],
      "name": "tokenPriceInWei",
      "outputs": [
        {
          "internalType": "uint256",
          "name": "",
          "type": "uint256"
        }
      ],
      "stateMutability": "view",
      "type": "function"
    },
    {
      "inputs": [
        {
          "internalType": "uint256",
          "name": "_tokenId",
          "type": "uint256"
        }
      ],
      "name": "tokenURI",
      "outputs": [
        {
          "internalType": "string",
          "name": "",
          "type": "string"
        }
      ],
      "stateMutability": "view",
      "type": "function"
    },
    {
      "inputs": [],
      "name": "totalSupply",
      "outputs": [
        {
          "internalType": "uint256",
          "name": "",
          "type": "uint256"
        }
      ],
      "stateMutability": "view",
      "type": "function"
    },
    {
      "inputs": [
        {
          "internalType": "address",
          "name": "from",
          "type": "address"
        },
        {
          "internalType": "address",
          "name": "to",
          "type": "address"
        },
        {
          "internalType": "uint256",
          "name": "tokenId",
          "type": "uint256"
        }
      ],
      "name": "transferFrom",
      "outputs": [],
      "stateMutability": "nonpayable",
      "type": "function"
    },
    {
      "inputs": [
        {
          "internalType": "string",
          "name": "_contractURI",
          "type": "string"
        }
      ],
      "name": "updateContractURI",
      "outputs": [],
      "stateMutability": "nonpayable",
      "type": "function"
    },
    {
      "inputs": [
        {
          "internalType": "address",
          "name": "_router",
          "type": "address"
        }
      ],
      "name": "updateRouter",
      "outputs": [],
      "stateMutability": "nonpayable",
      "type": "function"
    }
  ],
  "bytecode": "0x60806040526001600c556001601060006101000a81548160ff0219169083151502179055503480156200003157600080fd5b50604051620043b4380380620043b4833981810160405281019062000057919062000278565b848481600090805190602001906200007192919062000128565b5080600190805190602001906200008a92919062000128565b50505033600a60006101000a81548173ffffffffffffffffffffffffffffffffffffffff021916908373ffffffffffffffffffffffffffffffffffffffff16021790555081600d8190555082600b60006101000a81548173ffffffffffffffffffffffffffffffffffffffff021916908373ffffffffffffffffffffffffffffffffffffffff16021790555080600e819055505050505050620004cf565b828054620001369062000407565b90600052602060002090601f0160209004810192826200015a5760008555620001a6565b82601f106200017557805160ff1916838001178555620001a6565b82800160010185558215620001a6579182015b82811115620001a557825182559160200191906001019062000188565b5b509050620001b59190620001b9565b5090565b5b80821115620001d4576000816000905550600101620001ba565b5090565b6000620001ef620001e98462000360565b6200032c565b9050828152602081018484840111156200020857600080fd5b62000215848285620003d1565b509392505050565b6000815190506200022e816200049b565b92915050565b600082601f8301126200024657600080fd5b815162000258848260208601620001d8565b91505092915050565b6000815190506200027281620004b5565b92915050565b600080600080600060a086880312156200029157600080fd5b600086015167ffffffffffffffff811115620002ac57600080fd5b620002ba8882890162000234565b955050602086015167ffffffffffffffff811115620002d857600080fd5b620002e68882890162000234565b9450506040620002f9888289016200021d565b93505060606200030c8882890162000261565b92505060806200031f8882890162000261565b9150509295509295909350565b6000604051905081810181811067ffffffffffffffff821117156200035657620003556200046c565b5b8060405250919050565b600067ffffffffffffffff8211156200037e576200037d6200046c565b5b601f19601f8301169050602081019050919050565b6000620003a082620003a7565b9050919050565b600073ffffffffffffffffffffffffffffffffffffffff82169050919050565b6000819050919050565b60005b83811015620003f1578082015181840152602081019050620003d4565b8381111562000401576000848401525b50505050565b600060028204905060018216806200042057607f821691505b602082108114156200043757620004366200043d565b5b50919050565b7f4e487b7100000000000000000000000000000000000000000000000000000000600052602260045260246000fd5b7f4e487b7100000000000000000000000000000000000000000000000000000000600052604160045260246000fd5b620004a68162000393565b8114620004b257600080fd5b50565b620004c081620003c7565b8114620004cc57600080fd5b50565b613ed580620004df6000396000f3fe6080604052600436106101cd5760003560e01c806370a08231116100f7578063b88d4fde11610095578063e8a3d48511610064578063e8a3d48514610696578063e985e9c5146106c1578063f851a440146106fe578063f887ea4014610729576101cd565b8063b88d4fde146105f0578063c851cc3214610619578063c87b56dd14610642578063cd85cdb51461067f576101cd565b806383b66cba116100d157806383b66cba1461054e5780639258b6e71461056c57806395d89b411461059c578063a22cb465146105c7576101cd565b806370a08231146104bb5780637501f741146104f857806375794a3c14610523576101cd565b806323b872dd1161016f57806342842e0e1161013e57806342842e0e146103ed5780634f6ccce7146104165780636352211e146104535780636c0360eb14610490576101cd565b806323b872dd1461033357806327cfa7d21461035c5780632f745c59146103855780632f8de810146103c2576101cd565b8063095ea7b3116101ab578063095ea7b31461027757806315839b30146102a057806318160ddd146102cb57806321494e22146102f6576101cd565b806301ffc9a7146101d257806306fdde031461020f578063081812fc1461023a575b600080fd5b3480156101de57600080fd5b506101f960048036038101906101f49190612cf3565b610754565b6040516102069190613728565b60405180910390f35b34801561021b57600080fd5b506102246107ce565b6040516102319190613743565b60405180910390f35b34801561024657600080fd5b50610261600480360381019061025c9190612d86565b610860565b60405161026e91906136c1565b60405180910390f35b34801561028357600080fd5b5061029e60048036038101906102999190612cb7565b6108e5565b005b3480156102ac57600080fd5b506102b56109fd565b6040516102c29190613728565b60405180910390f35b3480156102d757600080fd5b506102e0610a10565b6040516102ed9190613a05565b60405180910390f35b34801561030257600080fd5b5061031d60048036038101906103189190612d86565b610a1d565b60405161032a91906136c1565b60405180910390f35b34801561033f57600080fd5b5061035a60048036038101906103559190612bb1565b610a50565b005b34801561036857600080fd5b50610383600480360381019061037e9190612d45565b610ab0565b005b34801561039157600080fd5b506103ac60048036038101906103a79190612cb7565b610b5a565b6040516103b99190613a05565b60405180910390f35b3480156103ce57600080fd5b506103d7610bff565b6040516103e49190613a05565b60405180910390f35b3480156103f957600080fd5b50610414600480360381019061040f9190612bb1565b610c05565b005b34801561042257600080fd5b5061043d60048036038101906104389190612d86565b610c25565b60405161044a9190613a05565b60405180910390f35b34801561045f57600080fd5b5061047a60048036038101906104759190612d86565b610cbc565b60405161048791906136c1565b60405180910390f35b34801561049c57600080fd5b506104a5610d6e565b6040516104b29190613743565b60405180910390f35b3480156104c757600080fd5b506104e260048036038101906104dd9190612b4c565b610dfc565b6040516104ef9190613a05565b60405180910390f35b34801561050457600080fd5b5061050d610eb4565b60405161051a9190613a05565b60405180910390f35b34801561052f57600080fd5b50610538610eba565b6040516105459190613a05565b60405180910390f35b610556610ec0565b6040516105639190613a05565b60405180910390f35b61058660048036038101906105819190612b4c565b610ed0565b6040516105939190613a05565b60405180910390f35b3480156105a857600080fd5b506105b1611023565b6040516105be9190613743565b60405180910390f35b3480156105d357600080fd5b506105ee60048036038101906105e99190612c7b565b6110b5565b005b3480156105fc57600080fd5b5061061760048036038101906106129190612c00565b611236565b005b34801561062557600080fd5b50610640600480360381019061063b9190612b4c565b61142b565b005b34801561064e57600080fd5b5061066960048036038101906106649190612d86565b6114ff565b6040516106769190613743565b60405180910390f35b34801561068b57600080fd5b5061069461157d565b005b3480156106a257600080fd5b506106ab611639565b6040516106b89190613743565b60405180910390f35b3480156106cd57600080fd5b506106e860048036038101906106e39190612b75565b611659565b6040516106f59190613728565b60405180910390f35b34801561070a57600080fd5b506107136116ed565b60405161072091906136c1565b60405180910390f35b34801561073557600080fd5b5061073e611713565b60405161074b91906136c1565b60405180910390f35b60007f780e9d63000000000000000000000000000000000000000000000000000000007bffffffffffffffffffffffffffffffffffffffffffffffffffffffff1916827bffffffffffffffffffffffffffffffffffffffffffffffffffffffff191614806107c757506107c682611739565b5b9050919050565b6060600080546107dd90613c7a565b80601f016020809104026020016040519081016040528092919081815260200182805461080990613c7a565b80156108565780601f1061082b57610100808354040283529160200191610856565b820191906000526020600020905b81548152906001019060200180831161083957829003601f168201915b5050505050905090565b600061086b8261181b565b6108aa576040517f08c379a00000000000000000000000000000000000000000000000000000000081526004016108a190613925565b60405180910390fd5b6004600083815260200190815260200160002060009054906101000a900473ffffffffffffffffffffffffffffffffffffffff169050919050565b60006108f082610cbc565b90508073ffffffffffffffffffffffffffffffffffffffff168373ffffffffffffffffffffffffffffffffffffffff161415610961576040517f08c379a0000000000000000000000000000000000000000000000000000000008152600401610958906139a5565b60405180910390fd5b8073ffffffffffffffffffffffffffffffffffffffff16610980611887565b73ffffffffffffffffffffffffffffffffffffffff1614806109af57506109ae816109a9611887565b611659565b5b6109ee576040517f08c379a00000000000000000000000000000000000000000000000000000000081526004016109e5906138a5565b60405180910390fd5b6109f8838361188f565b505050565b601060009054906101000a900460ff1681565b6000600880549050905090565b60116020528060005260406000206000915054906101000a900473ffffffffffffffffffffffffffffffffffffffff1681565b610a61610a5b611887565b82611948565b610aa0576040517f08c379a0000000000000000000000000000000000000000000000000000000008152600401610a97906139c5565b60405180910390fd5b610aab838383611a26565b505050565b600a60009054906101000a900473ffffffffffffffffffffffffffffffffffffffff1673ffffffffffffffffffffffffffffffffffffffff163373ffffffffffffffffffffffffffffffffffffffff1614610b40576040517f08c379a0000000000000000000000000000000000000000000000000000000008152600401610b3790613845565b60405180910390fd5b80600f9080519060200190610b56929190612970565b5050565b6000610b6583610dfc565b8210610ba6576040517f08c379a0000000000000000000000000000000000000000000000000000000008152600401610b9d90613785565b60405180910390fd5b600660008473ffffffffffffffffffffffffffffffffffffffff1673ffffffffffffffffffffffffffffffffffffffff168152602001908152602001600020600083815260200190815260200160002054905092915050565b600e5481565b610c2083838360405180602001604052806000815250611236565b505050565b6000610c2f610a10565b8210610c70576040517f08c379a0000000000000000000000000000000000000000000000000000000008152600401610c67906139e5565b60405180910390fd5b60088281548110610caa577f4e487b7100000000000000000000000000000000000000000000000000000000600052603260045260246000fd5b90600052602060002001549050919050565b6000806002600084815260200190815260200160002060009054906101000a900473ffffffffffffffffffffffffffffffffffffffff169050600073ffffffffffffffffffffffffffffffffffffffff168173ffffffffffffffffffffffffffffffffffffffff161415610d65576040517f08c379a0000000000000000000000000000000000000000000000000000000008152600401610d5c906138e5565b60405180910390fd5b80915050919050565b600f8054610d7b90613c7a565b80601f0160208091040260200160405190810160405280929190818152602001828054610da790613c7a565b8015610df45780601f10610dc957610100808354040283529160200191610df4565b820191906000526020600020905b815481529060010190602001808311610dd757829003601f168201915b505050505081565b60008073ffffffffffffffffffffffffffffffffffffffff168273ffffffffffffffffffffffffffffffffffffffff161415610e6d576040517f08c379a0000000000000000000000000000000000000000000000000000000008152600401610e64906138c5565b60405180910390fd5b600360008373ffffffffffffffffffffffffffffffffffffffff1673ffffffffffffffffffffffffffffffffffffffff168152602001908152602001600020549050919050565b600d5481565b600c5481565b6000610ecb33610ed0565b905090565b6000600e54341015610f17576040517f08c379a0000000000000000000000000000000000000000000000000000000008152600401610f0e906137e5565b60405180910390fd5b600d54600c541115610f5e576040517f08c379a0000000000000000000000000000000000000000000000000000000008152600401610f5590613885565b60405180910390fd5b601060009054906101000a900460ff1680610fc65750600a60009054906101000a900473ffffffffffffffffffffffffffffffffffffffff1673ffffffffffffffffffffffffffffffffffffffff163373ffffffffffffffffffffffffffffffffffffffff16145b611005576040517f08c379a0000000000000000000000000000000000000000000000000000000008152600401610ffc90613765565b60405180910390fd5b600061101083611c82565b905061101a611d4d565b80915050919050565b60606001805461103290613c7a565b80601f016020809104026020016040519081016040528092919081815260200182805461105e90613c7a565b80156110ab5780601f10611080576101008083540402835291602001916110ab565b820191906000526020600020905b81548152906001019060200180831161108e57829003601f168201915b5050505050905090565b6110bd611887565b73ffffffffffffffffffffffffffffffffffffffff168273ffffffffffffffffffffffffffffffffffffffff16141561112b576040517f08c379a000000000000000000000000000000000000000000000000000000000815260040161112290613825565b60405180910390fd5b8060056000611138611887565b73ffffffffffffffffffffffffffffffffffffffff1673ffffffffffffffffffffffffffffffffffffffff16815260200190815260200160002060008473ffffffffffffffffffffffffffffffffffffffff1673ffffffffffffffffffffffffffffffffffffffff16815260200190815260200160002060006101000a81548160ff0219169083151502179055508173ffffffffffffffffffffffffffffffffffffffff166111e5611887565b73ffffffffffffffffffffffffffffffffffffffff167f17307eab39ab6107e8899845ad3d59bd9653f200f220920489ca2b5937696c318360405161122a9190613728565b60405180910390a35050565b600b60009054906101000a900473ffffffffffffffffffffffffffffffffffffffff1673ffffffffffffffffffffffffffffffffffffffff16611277611887565b73ffffffffffffffffffffffffffffffffffffffff161480156112e75750600b60009054906101000a900473ffffffffffffffffffffffffffffffffffffffff1673ffffffffffffffffffffffffffffffffffffffff168473ffffffffffffffffffffffffffffffffffffffff16145b80156113415750600b60009054906101000a900473ffffffffffffffffffffffffffffffffffffffff1673ffffffffffffffffffffffffffffffffffffffff168373ffffffffffffffffffffffffffffffffffffffff1614155b801561135357506113518261181b565b155b156113c9576000821161139b576040517f08c379a000000000000000000000000000000000000000000000000000000000815260040161139290613945565b60405180910390fd5b6113c8600b60009054906101000a900473ffffffffffffffffffffffffffffffffffffffff168385611e28565b5b6113da6113d4611887565b83611948565b611419576040517f08c379a0000000000000000000000000000000000000000000000000000000008152600401611410906139c5565b60405180910390fd5b61142584848484611e7b565b50505050565b600a60009054906101000a900473ffffffffffffffffffffffffffffffffffffffff1673ffffffffffffffffffffffffffffffffffffffff163373ffffffffffffffffffffffffffffffffffffffff16146114bb576040517f08c379a00000000000000000000000000000000000000000000000000000000081526004016114b290613845565b60405180910390fd5b80600b60006101000a81548173ffffffffffffffffffffffffffffffffffffffff021916908373ffffffffffffffffffffffffffffffffffffffff16021790555050565b60608161150b8161181b565b61154a576040517f08c379a000000000000000000000000000000000000000000000000000000000815260040161154190613965565b60405180910390fd5b600f61155584611ed7565b604051602001611566929190613692565b604051602081830303815290604052915050919050565b600a60009054906101000a900473ffffffffffffffffffffffffffffffffffffffff1673ffffffffffffffffffffffffffffffffffffffff163373ffffffffffffffffffffffffffffffffffffffff161461160d576040517f08c379a000000000000000000000000000000000000000000000000000000000815260040161160490613845565b60405180910390fd5b601060009054906101000a900460ff1615601060006101000a81548160ff021916908315150217905550565b6060604051806080016040528060508152602001613e5060509139905090565b6000600560008473ffffffffffffffffffffffffffffffffffffffff1673ffffffffffffffffffffffffffffffffffffffff16815260200190815260200160002060008373ffffffffffffffffffffffffffffffffffffffff1673ffffffffffffffffffffffffffffffffffffffff16815260200190815260200160002060009054906101000a900460ff16905092915050565b600a60009054906101000a900473ffffffffffffffffffffffffffffffffffffffff1681565b600b60009054906101000a900473ffffffffffffffffffffffffffffffffffffffff1681565b60007f80ac58cd000000000000000000000000000000000000000000000000000000007bffffffffffffffffffffffffffffffffffffffffffffffffffffffff1916827bffffffffffffffffffffffffffffffffffffffffffffffffffffffff1916148061180457507f5b5e139f000000000000000000000000000000000000000000000000000000007bffffffffffffffffffffffffffffffffffffffffffffffffffffffff1916827bffffffffffffffffffffffffffffffffffffffffffffffffffffffff1916145b80611814575061181382612084565b5b9050919050565b60008073ffffffffffffffffffffffffffffffffffffffff166002600084815260200190815260200160002060009054906101000a900473ffffffffffffffffffffffffffffffffffffffff1673ffffffffffffffffffffffffffffffffffffffff1614159050919050565b600033905090565b816004600083815260200190815260200160002060006101000a81548173ffffffffffffffffffffffffffffffffffffffff021916908373ffffffffffffffffffffffffffffffffffffffff160217905550808273ffffffffffffffffffffffffffffffffffffffff1661190283610cbc565b73ffffffffffffffffffffffffffffffffffffffff167f8c5be1e5ebec7d5bd14f71427d1e84f3dd0314c0f7b2291e5b200ac8c7c3b92560405160405180910390a45050565b60006119538261181b565b611992576040517f08c379a000000000000000000000000000000000000000000000000000000000815260040161198990613865565b60405180910390fd5b600061199d83610cbc565b90508073ffffffffffffffffffffffffffffffffffffffff168473ffffffffffffffffffffffffffffffffffffffff161480611a0c57508373ffffffffffffffffffffffffffffffffffffffff166119f484610860565b73ffffffffffffffffffffffffffffffffffffffff16145b80611a1d5750611a1c8185611659565b5b91505092915050565b8273ffffffffffffffffffffffffffffffffffffffff16611a4682610cbc565b73ffffffffffffffffffffffffffffffffffffffff1614611a9c576040517f08c379a0000000000000000000000000000000000000000000000000000000008152600401611a9390613985565b60405180910390fd5b600073ffffffffffffffffffffffffffffffffffffffff168273ffffffffffffffffffffffffffffffffffffffff161415611b0c576040517f08c379a0000000000000000000000000000000000000000000000000000000008152600401611b0390613805565b60405180910390fd5b611b178383836120ee565b611b2260008261188f565b6001600360008573ffffffffffffffffffffffffffffffffffffffff1673ffffffffffffffffffffffffffffffffffffffff1681526020019081526020016000206000828254611b729190613b90565b925050819055506001600360008473ffffffffffffffffffffffffffffffffffffffff1673ffffffffffffffffffffffffffffffffffffffff1681526020019081526020016000206000828254611bc99190613b09565b92505081905550816002600083815260200190815260200160002060006101000a81548173ffffffffffffffffffffffffffffffffffffffff021916908373ffffffffffffffffffffffffffffffffffffffff160217905550808273ffffffffffffffffffffffffffffffffffffffff168473ffffffffffffffffffffffffffffffffffffffff167fddf252ad1be2c89b69c2b068fc378daa952ba7f163c4a11628f55a4df523b3ef60405160405180910390a4505050565b600080600c5490506001600c6000828254611c9d9190613b09565b92505081905550611cae8382612202565b826011600083815260200190815260200160002060006101000a81548173ffffffffffffffffffffffffffffffffffffffff021916908373ffffffffffffffffffffffffffffffffffffffff160217905550808373ffffffffffffffffffffffffffffffffffffffff167f0f6798a560793a54c3bcfe86a93cde1e73087d944c0ea20544137d412139688560405160405180910390a380915050919050565b6000341115611e26576000600e5434611d669190613b90565b90506000811115611db9573373ffffffffffffffffffffffffffffffffffffffff166108fc829081150290604051600060405180830381858888f19350505050158015611db7573d6000803e3d6000fd5b505b600a60009054906101000a900473ffffffffffffffffffffffffffffffffffffffff1673ffffffffffffffffffffffffffffffffffffffff166108fc600e549081150290604051600060405180830381858888f19350505050158015611e23573d6000803e3d6000fd5b50505b565b611e3283836123d0565b818173ffffffffffffffffffffffffffffffffffffffff167f5c2da67751b5c2b8ffb1579ea16e70cf01e4b94068f0d42369de650adc07f61360405160405180910390a3505050565b611e86848484611a26565b611e92848484846123ee565b611ed1576040517f08c379a0000000000000000000000000000000000000000000000000000000008152600401611ec8906137a5565b60405180910390fd5b50505050565b60606000821415611f1f576040518060400160405280600181526020017f3000000000000000000000000000000000000000000000000000000000000000815250905061207f565b600082905060005b60008214611f51578080611f3a90613cac565b915050600a82611f4a9190613b5f565b9150611f27565b60008167ffffffffffffffff811115611f93577f4e487b7100000000000000000000000000000000000000000000000000000000600052604160045260246000fd5b6040519080825280601f01601f191660200182016040528015611fc55781602001600182028036833780820191505090505b5090505b6000851461207857600182611fde9190613b90565b9150600a85611fed9190613cf5565b6030611ff99190613b09565b60f81b818381518110612035577f4e487b7100000000000000000000000000000000000000000000000000000000600052603260045260246000fd5b60200101907effffffffffffffffffffffffffffffffffffffffffffffffffffffffffffff1916908160001a905350600a856120719190613b5f565b9450611fc9565b8093505050505b919050565b60007f01ffc9a7000000000000000000000000000000000000000000000000000000007bffffffffffffffffffffffffffffffffffffffffffffffffffffffff1916827bffffffffffffffffffffffffffffffffffffffffffffffffffffffff1916149050919050565b6120f9838383612585565b600073ffffffffffffffffffffffffffffffffffffffff168373ffffffffffffffffffffffffffffffffffffffff16141561213c576121378161258a565b61217b565b8173ffffffffffffffffffffffffffffffffffffffff168373ffffffffffffffffffffffffffffffffffffffff161461217a5761217983826125d3565b5b5b600073ffffffffffffffffffffffffffffffffffffffff168273ffffffffffffffffffffffffffffffffffffffff1614156121be576121b981612740565b6121fd565b8273ffffffffffffffffffffffffffffffffffffffff168273ffffffffffffffffffffffffffffffffffffffff16146121fc576121fb8282612883565b5b5b505050565b600073ffffffffffffffffffffffffffffffffffffffff168273ffffffffffffffffffffffffffffffffffffffff161415612272576040517f08c379a000000000000000000000000000000000000000000000000000000000815260040161226990613905565b60405180910390fd5b61227b8161181b565b156122bb576040517f08c379a00000000000000000000000000000000000000000000000000000000081526004016122b2906137c5565b60405180910390fd5b6122c7600083836120ee565b6001600360008473ffffffffffffffffffffffffffffffffffffffff1673ffffffffffffffffffffffffffffffffffffffff16815260200190815260200160002060008282546123179190613b09565b92505081905550816002600083815260200190815260200160002060006101000a81548173ffffffffffffffffffffffffffffffffffffffff021916908373ffffffffffffffffffffffffffffffffffffffff160217905550808273ffffffffffffffffffffffffffffffffffffffff16600073ffffffffffffffffffffffffffffffffffffffff167fddf252ad1be2c89b69c2b068fc378daa952ba7f163c4a11628f55a4df523b3ef60405160405180910390a45050565b6123ea828260405180602001604052806000815250612902565b5050565b600061240f8473ffffffffffffffffffffffffffffffffffffffff1661295d565b15612578578373ffffffffffffffffffffffffffffffffffffffff1663150b7a02612438611887565b8786866040518563ffffffff1660e01b815260040161245a94939291906136dc565b602060405180830381600087803b15801561247457600080fd5b505af19250505080156124a557506040513d601f19601f820116820180604052508101906124a29190612d1c565b60015b612528573d80600081146124d5576040519150601f19603f3d011682016040523d82523d6000602084013e6124da565b606091505b50600081511415612520576040517f08c379a0000000000000000000000000000000000000000000000000000000008152600401612517906137a5565b60405180910390fd5b805181602001fd5b63150b7a0260e01b7bffffffffffffffffffffffffffffffffffffffffffffffffffffffff1916817bffffffffffffffffffffffffffffffffffffffffffffffffffffffff19161491505061257d565b600190505b949350505050565b505050565b6008805490506009600083815260200190815260200160002081905550600881908060018154018082558091505060019003906000526020600020016000909190919091505550565b600060016125e084610dfc565b6125ea9190613b90565b90506000600760008481526020019081526020016000205490508181146126cf576000600660008673ffffffffffffffffffffffffffffffffffffffff1673ffffffffffffffffffffffffffffffffffffffff168152602001908152602001600020600084815260200190815260200160002054905080600660008773ffffffffffffffffffffffffffffffffffffffff1673ffffffffffffffffffffffffffffffffffffffff168152602001908152602001600020600084815260200190815260200160002081905550816007600083815260200190815260200160002081905550505b6007600084815260200190815260200160002060009055600660008573ffffffffffffffffffffffffffffffffffffffff1673ffffffffffffffffffffffffffffffffffffffff16815260200190815260200160002060008381526020019081526020016000206000905550505050565b600060016008805490506127549190613b90565b90506000600960008481526020019081526020016000205490506000600883815481106127aa577f4e487b7100000000000000000000000000000000000000000000000000000000600052603260045260246000fd5b9060005260206000200154905080600883815481106127f2577f4e487b7100000000000000000000000000000000000000000000000000000000600052603260045260246000fd5b906000526020600020018190555081600960008381526020019081526020016000208190555060096000858152602001908152602001600020600090556008805480612867577f4e487b7100000000000000000000000000000000000000000000000000000000600052603160045260246000fd5b6001900381819060005260206000200160009055905550505050565b600061288e83610dfc565b905081600660008573ffffffffffffffffffffffffffffffffffffffff1673ffffffffffffffffffffffffffffffffffffffff168152602001908152602001600020600083815260200190815260200160002081905550806007600084815260200190815260200160002081905550505050565b61290c8383612202565b61291960008484846123ee565b612958576040517f08c379a000000000000000000000000000000000000000000000000000000000815260040161294f906137a5565b60405180910390fd5b505050565b600080823b905060008111915050919050565b82805461297c90613c7a565b90600052602060002090601f01602090048101928261299e57600085556129e5565b82601f106129b757805160ff19168380011785556129e5565b828001600101855582156129e5579182015b828111156129e45782518255916020019190600101906129c9565b5b5090506129f291906129f6565b5090565b5b80821115612a0f5760008160009055506001016129f7565b5090565b6000612a26612a2184613a51565b613a20565b905082815260208101848484011115612a3e57600080fd5b612a49848285613c38565b509392505050565b6000612a64612a5f84613a81565b613a20565b905082815260208101848484011115612a7c57600080fd5b612a87848285613c38565b509392505050565b600081359050612a9e81613df3565b92915050565b600081359050612ab381613e0a565b92915050565b600081359050612ac881613e21565b92915050565b600081519050612add81613e21565b92915050565b600082601f830112612af457600080fd5b8135612b04848260208601612a13565b91505092915050565b600082601f830112612b1e57600080fd5b8135612b2e848260208601612a51565b91505092915050565b600081359050612b4681613e38565b92915050565b600060208284031215612b5e57600080fd5b6000612b6c84828501612a8f565b91505092915050565b60008060408385031215612b8857600080fd5b6000612b9685828601612a8f565b9250506020612ba785828601612a8f565b9150509250929050565b600080600060608486031215612bc657600080fd5b6000612bd486828701612a8f565b9350506020612be586828701612a8f565b9250506040612bf686828701612b37565b9150509250925092565b60008060008060808587031215612c1657600080fd5b6000612c2487828801612a8f565b9450506020612c3587828801612a8f565b9350506040612c4687828801612b37565b925050606085013567ffffffffffffffff811115612c6357600080fd5b612c6f87828801612ae3565b91505092959194509250565b60008060408385031215612c8e57600080fd5b6000612c9c85828601612a8f565b9250506020612cad85828601612aa4565b9150509250929050565b60008060408385031215612cca57600080fd5b6000612cd885828601612a8f565b9250506020612ce985828601612b37565b9150509250929050565b600060208284031215612d0557600080fd5b6000612d1384828501612ab9565b91505092915050565b600060208284031215612d2e57600080fd5b6000612d3c84828501612ace565b91505092915050565b600060208284031215612d5757600080fd5b600082013567ffffffffffffffff811115612d7157600080fd5b612d7d84828501612b0d565b91505092915050565b600060208284031215612d9857600080fd5b6000612da684828501612b37565b91505092915050565b612db881613bc4565b82525050565b612dc781613bd6565b82525050565b6000612dd882613ac6565b612de28185613adc565b9350612df2818560208601613c47565b612dfb81613de2565b840191505092915050565b6000612e1182613ad1565b612e1b8185613aed565b9350612e2b818560208601613c47565b612e3481613de2565b840191505092915050565b6000612e4a82613ad1565b612e548185613afe565b9350612e64818560208601613c47565b80840191505092915050565b60008154612e7d81613c7a565b612e878186613afe565b94506001821660008114612ea25760018114612eb357612ee6565b60ff19831686528186019350612ee6565b612ebc85613ab1565b60005b83811015612ede57815481890152600182019150602081019050612ebf565b838801955050505b50505092915050565b6000612efc601c83613aed565b91507f507572636861736573206d757374206e6f7420626520706175736564000000006000830152602082019050919050565b6000612f3c602b83613aed565b91507f455243373231456e756d657261626c653a206f776e657220696e646578206f7560008301527f74206f6620626f756e64730000000000000000000000000000000000000000006020830152604082019050919050565b6000612fa2603283613aed565b91507f4552433732313a207472616e7366657220746f206e6f6e20455243373231526560008301527f63656976657220696d706c656d656e74657200000000000000000000000000006020830152604082019050919050565b6000613008601c83613aed565b91507f4552433732313a20746f6b656e20616c7265616479206d696e746564000000006000830152602082019050919050565b6000613048602a83613aed565b91507f4d7573742073656e64206174206c656173742063757272656e7420707269636560008301527f20666f7220746f6b656e000000000000000000000000000000000000000000006020830152604082019050919050565b60006130ae602483613aed565b91507f4552433732313a207472616e7366657220746f20746865207a65726f2061646460008301527f72657373000000000000000000000000000000000000000000000000000000006020830152604082019050919050565b6000613114601983613aed565b91507f4552433732313a20617070726f766520746f2063616c6c6572000000000000006000830152602082019050919050565b6000613154600a83613aed565b91507f4f6e6c792061646d696e000000000000000000000000000000000000000000006000830152602082019050919050565b6000613194602c83613aed565b91507f4552433732313a206f70657261746f7220717565727920666f72206e6f6e657860008301527f697374656e7420746f6b656e00000000000000000000000000000000000000006020830152604082019050919050565b60006131fa602683613aed565b91507f4d757374206e6f7420657863656564206d6178696d756d206d696e74206f6e2060008301527f46616e746f6d00000000000000000000000000000000000000000000000000006020830152604082019050919050565b6000613260603883613aed565b91507f4552433732313a20617070726f76652063616c6c6572206973206e6f74206f7760008301527f6e6572206e6f7220617070726f76656420666f7220616c6c00000000000000006020830152604082019050919050565b60006132c6602a83613aed565b91507f4552433732313a2062616c616e636520717565727920666f7220746865207a6560008301527f726f2061646472657373000000000000000000000000000000000000000000006020830152604082019050919050565b600061332c602983613aed565b91507f4552433732313a206f776e657220717565727920666f72206e6f6e657869737460008301527f656e7420746f6b656e00000000000000000000000000000000000000000000006020830152604082019050919050565b6000613392602083613aed565b91507f4552433732313a206d696e7420746f20746865207a65726f20616464726573736000830152602082019050919050565b60006133d2602c83613aed565b91507f4552433732313a20617070726f76656420717565727920666f72206e6f6e657860008301527f697374656e7420746f6b656e00000000000000000000000000000000000000006020830152604082019050919050565b6000613438601083613aed565b91507f546f6b656e20494420696e76616c6964000000000000000000000000000000006000830152602082019050919050565b6000613478601b83613aed565b91507f546f6b656e20494420646f6573206e6f742065786973742059657400000000006000830152602082019050919050565b60006134b8602983613aed565b91507f4552433732313a207472616e73666572206f6620746f6b656e2074686174206960008301527f73206e6f74206f776e00000000000000000000000000000000000000000000006020830152604082019050919050565b600061351e602183613aed565b91507f4552433732313a20617070726f76616c20746f2063757272656e74206f776e6560008301527f72000000000000000000000000000000000000000000000000000000000000006020830152604082019050919050565b6000613584600683613afe565b91507f2f6e6674732f00000000000000000000000000000000000000000000000000006000830152600682019050919050565b60006135c4603183613aed565b91507f4552433732313a207472616e736665722063616c6c6572206973206e6f74206f60008301527f776e6572206e6f7220617070726f7665640000000000000000000000000000006020830152604082019050919050565b600061362a602c83613aed565b91507f455243373231456e756d657261626c653a20676c6f62616c20696e646578206f60008301527f7574206f6620626f756e647300000000000000000000000000000000000000006020830152604082019050919050565b61368c81613c2e565b82525050565b600061369e8285612e70565b91506136a982613577565b91506136b58284612e3f565b91508190509392505050565b60006020820190506136d66000830184612daf565b92915050565b60006080820190506136f16000830187612daf565b6136fe6020830186612daf565b61370b6040830185613683565b818103606083015261371d8184612dcd565b905095945050505050565b600060208201905061373d6000830184612dbe565b92915050565b6000602082019050818103600083015261375d8184612e06565b905092915050565b6000602082019050818103600083015261377e81612eef565b9050919050565b6000602082019050818103600083015261379e81612f2f565b9050919050565b600060208201905081810360008301526137be81612f95565b9050919050565b600060208201905081810360008301526137de81612ffb565b9050919050565b600060208201905081810360008301526137fe8161303b565b9050919050565b6000602082019050818103600083015261381e816130a1565b9050919050565b6000602082019050818103600083015261383e81613107565b9050919050565b6000602082019050818103600083015261385e81613147565b9050919050565b6000602082019050818103600083015261387e81613187565b9050919050565b6000602082019050818103600083015261389e816131ed565b9050919050565b600060208201905081810360008301526138be81613253565b9050919050565b600060208201905081810360008301526138de816132b9565b9050919050565b600060208201905081810360008301526138fe8161331f565b9050919050565b6000602082019050818103600083015261391e81613385565b9050919050565b6000602082019050818103600083015261393e816133c5565b9050919050565b6000602082019050818103600083015261395e8161342b565b9050919050565b6000602082019050818103600083015261397e8161346b565b9050919050565b6000602082019050818103600083015261399e816134ab565b9050919050565b600060208201905081810360008301526139be81613511565b9050919050565b600060208201905081810360008301526139de816135b7565b9050919050565b600060208201905081810360008301526139fe8161361d565b9050919050565b6000602082019050613a1a6000830184613683565b92915050565b6000604051905081810181811067ffffffffffffffff82111715613a4757613a46613db3565b5b8060405250919050565b600067ffffffffffffffff821115613a6c57613a6b613db3565b5b601f19601f8301169050602081019050919050565b600067ffffffffffffffff821115613a9c57613a9b613db3565b5b601f19601f8301169050602081019050919050565b60008190508160005260206000209050919050565b600081519050919050565b600081519050919050565b600082825260208201905092915050565b600082825260208201905092915050565b600081905092915050565b6000613b1482613c2e565b9150613b1f83613c2e565b9250827fffffffffffffffffffffffffffffffffffffffffffffffffffffffffffffffff03821115613b5457613b53613d26565b5b828201905092915050565b6000613b6a82613c2e565b9150613b7583613c2e565b925082613b8557613b84613d55565b5b828204905092915050565b6000613b9b82613c2e565b9150613ba683613c2e565b925082821015613bb957613bb8613d26565b5b828203905092915050565b6000613bcf82613c0e565b9050919050565b60008115159050919050565b60007fffffffff0000000000000000000000000000000000000000000000000000000082169050919050565b600073ffffffffffffffffffffffffffffffffffffffff82169050919050565b6000819050919050565b82818337600083830152505050565b60005b83811015613c65578082015181840152602081019050613c4a565b83811115613c74576000848401525b50505050565b60006002820490506001821680613c9257607f821691505b60208210811415613ca657613ca5613d84565b5b50919050565b6000613cb782613c2e565b91507fffffffffffffffffffffffffffffffffffffffffffffffffffffffffffffffff821415613cea57613ce9613d26565b5b600182019050919050565b6000613d0082613c2e565b9150613d0b83613c2e565b925082613d1b57613d1a613d55565b5b828206905092915050565b7f4e487b7100000000000000000000000000000000000000000000000000000000600052601160045260246000fd5b7f4e487b7100000000000000000000000000000000000000000000000000000000600052601260045260246000fd5b7f4e487b7100000000000000000000000000000000000000000000000000000000600052602260045260246000fd5b7f4e487b7100000000000000000000000000000000000000000000000000000000600052604160045260246000fd5b6000601f19601f8301169050919050565b613dfc81613bc4565b8114613e0757600080fd5b50565b613e1381613bd6565b8114613e1e57600080fd5b50565b613e2a81613be2565b8114613e3557600080fd5b50565b613e4181613c2e565b8114613e4c57600080fd5b5056fe68747470733a2f2f676174657761792e70696e6174612e636c6f75642f697066732f516d5a6b755675327a37717a615233697646624d55467144574e3178414846437a41557968477947474377363955a2646970667358221220a3c6073b843ec798c7053f397f33dd7ced9a13dd6bf297cd4fdd7bc5e6fc20a964736f6c63430008000033",
  "linkReferences": {},
  "deployedLinkReferences": {}
}